:020000040800F2
:10000000480B0020E1010008C7130008491200084E
:10001000C513000811060008AD1900080000000013
:10002000000000000000000000000000C1160008F1
:100030001306000800000000C9130008C3160008DA
:10004000FB010008FB010008FB010008FB010008A0
:10005000FB010008FB010008FB010008FB01000890
:10006000FB010008FB010008FB010008FB01000880
:10007000FB010008FB010008FB010008FB01000870
:10008000FB010008FB010008FB010008FB01000860
:10009000FB010008FB010008FB010008FB01000850
:1000A000FB010008FB010008FB010008FB01000840
:1000B000FB010008FB010008FB010008FB01000830
:1000C000FB010008FB010008FB010008FB01000820
:1000D000FB010008FB010008FB010008FB01000810
:1000E000FB010008FB010008FB01000800F002F81A
:1000F00000F066F80AA090E8000C82448344AAF15C
:100100000107DA4501D100F05BF8AFF2090EBAE859
:100110000F0013F0010F18BFFB1A43F0010318473B
:10012000F44300001444000010F8013B0A4413F0AB
:10013000030408BF10F8014B1D1108BF10F8015B44
:10014000641E05D010F8016B641E01F8016BF9D133
:10015000002D15D010F8014B03F00C030C2BA1EB74
:1001600004040ABF10F8013BA4EB8314A4EB03249E
:1001700005F1010314F8016B5B1E01F8016BF9D561
:10018000914238BF10F8013BD1D3704700230024BF
:1001900000250026103A28BF78C1FBD8520728BF97
:1001A00030C148BF0B607047642900F0A5807329F7
:1001B00000F0CA81002070471FB51FBD10B510BDEB
:1001C00000F0F4F91146FFF7F7FF03F0AFFD00F080
:1001D00012FA03B4FFF7F2FF03BC03F050FC000077
:1001E0000948804709480047FEE7FEE7FEE7FEE7CB
:1001F000FEE7FEE7FEE7FEE7FEE7FEE70448054907
:10020000054A064B7047000025170008ED0000085E
:1002100048050020480B0020480700204807002020
:10022000704700000FB4044910B503AA029800F00B
:100230008FF910BC5DF814FB000000202DE9F0419F
:100240000E460446002020622046E168884730B30D
:10025000252805D0D4E901219047206A401CF2E707
:10026000E168204600278847050018D0A5F1410025
:10027000192802D820354FF4006732462946204617
:100280002760FFF791FF40B1012804D0F61D26F04A
:1002900007060836D8E7361DD6E72846DAE7206A8B
:1002A000BDE8F08170B50C460546012A05D02878D6
:1002B000800600D5EA69002302E0012305E05B1C0B
:1002C000934202D2E05C0028F9D1A869E618C01A6E
:1002D000A861286A184428622846AFF3008004E029
:1002E000D5E9012114F8010B9047B442F8D3284610
:1002F000AFF3008070BD00002DE9F04106460024F8
:1003000010687529314616A510D0AFF3008000287B
:1003100002DA404213A507E031688A0701D512A529
:1003200002E0490704D511A5012401E0AFF30080E4
:1003300000210A2206F1240709E0B0FBF2FCB0FB21
:10034000F2F302FB1C00303078541846491C002898
:10035000F3D123462A463046BDE8F04100F089B883
:10036000000000002D0000002B0000002000000015
:1003700040EA0103024630B59B0710D14FF001342B
:1003800000E008C208C91D1B9D4315EAC41FF8D030
:1003900013F0FF0102F8011B0DD01B0AF8E711F85A
:1003A000013B002B02F8013B05D011F8013B002B6B
:1003B00002F8013BF3D130BD10B5203AC0F00B80FC
:1003C000B1E81850203AA0E81850B1E81850A0E859
:1003D0001850BFF4F5AF5FEA027C24BFB1E81850B3
:1003E000A0E8185044BF18C918C0BDE810405FEA23
:1003F000827C24BF51F8043B40F8043B08BF70479F
:10040000D20728BF31F8023B48BF11F8012B28BFA3
:1004100020F8023B48BF00F8012B70474FF0000264
:1004200000B5134694469646203922BFA0E80C50EA
:10043000A0E80C50B1F12001BFF4F7AF090728BFC5
:10044000A0E80C5048BF0CC05DF804EB890028BF41
:1004500040F8042B08BF704748BF20F8022B11F06A
:10046000804F18BF00F8012B7047704770477047E6
:1004700070472DE9F0470D4699469246044600F133
:1004800024080168880604D5E06921F01001216084
:1004900000E00120A84201DD471B00E00027A16920
:1004A0007A1902EB0900081AA0612078C00602D46C
:1004B0002046AFF30080002608E0D4E901211AF8B5
:1004C00006009047206A401C761C20624E45F4DBF3
:1004D0002078C0060AD52046AFF3008006E0D4E9B4
:1004E000012130209047206A401C2062381EA7F16D
:1004F0000107F4DC07E0D4E9012118F80500904772
:10050000206A401C2062281EA5F10105F3DC20466C
:10051000AFF300802078000602D50220BDE8F08706
:100520000120FBE710B5436913B1AFF3008001E090
:10053000FFF7B8FE012010BD127800F124010A7007
:1005400000224A700122EDE711684FF0FF32E9E71F
:10055000074B70B50D467B4400F011F80446284661
:1005600000F020F810B14FF0FF3070BD204670BD94
:100570004B36000001694A1C02610878704700B5DB
:100580008FB0CDE901310021059105497944CDE9CC
:10059000031011466846FFF751FE0FB000BD000082
:1005A000E5FFFFFF007B00F080007047754600F01C
:1005B0002BF8AE4605006946534620F007008546F5
:1005C00018B020B5FFF71AFEBDE820404FF0000636
:1005D0004FF000074FF000084FF0000B21F007012B
:1005E000AC46ACE8C009ACE8C009ACE8C009ACE86E
:1005F000C0098D46704710B50446AFF30080204611
:10060000BDE81040FFF7E5BD00487047E404002056
:10061000FEE7704772B6FEE770B5044600F008F9D1
:100620000546601C02D004480078044400F000F93C
:10063000401BA042FAD370BD040000202DE9F84F02
:10064000DFF8B891002409F1040A0AF1040B2346EB
:100650000F270BF1040EC9E00125A5402A40AA424C
:100660007DD1674ED1F804C0ACEB0608B44532D05A
:1006700014DCBCF1030F3AD009DCBCF1000F2AD026
:10068000BCF1010F1CD0BCF1020F31D11DE0BCF157
:10069000110F17D0BCF1120F2AD119E0B8F5881F3D
:1006A00019D006DCB8F5803F15D0B8F5801F1FD1F2
:1006B00011E0B8F5001F0ED0B8F5041F18D10AE0FC
:1006C000CB6815E0CB681B1D12E0CB6808330FE048
:1006D000CB680C330CE08B682BB1012B4FF0080377
:1006E00003D0456104E0042302E0056100E000233B
:1006F000FF2A01D8064601E000F104064FEA84050E
:1007000001D9A5F12005D6F8008007FA05FC28EAF2
:100710000C0803FA05F548EA0508C6F800804D689C
:10072000ED0062D5374DAE6946F00106AE61AD69A8
:1007300024F0030605F001050095334D06EB050C8A
:10074000DCF80850A607360F07FA06F825EA080570
:10075000DFF8B880404503D14FF0000817E044E0CF
:10076000DFF8AC80404502D14FF001080FE0DFF820
:10077000A480404502D14FF0020808E0DFF89880DD
:10078000404502D14FF0030801E04FF0040808FA99
:1007900006F848EA0508CCF808804D68D9F80060EA
:1007A000ED034D4601D5164300E096432E604D689B
:1007B000DAF80060AD03554601D5164300E09643D4
:1007C0002E604D68DBF80060ED025D4601D51643F2
:1007D00000E096432E604D68DEF80060AD0275467D
:1007E00001D5164300E096432E60641C0D682A462E
:1007F000E5407FF431AFBDE8F88F00000004014010
:1008000000001110001002400000014000080140EB
:10081000000C0140001001400014014080680840B5
:1008200000D0012070470AB1016170470904FBE75D
:100830000148806870470000040000200248816879
:10084000027811448160704704000020074810B509
:10085000016841F010010160032000F067F80F20EB
:1008600000F006F800F024F8002010BD002002403F
:1008700070B50D4D04464FF47A712878B1FBF0F055
:100880000A490968B1FBF0F000F0EAFA48B9102C07
:1008900007D200222146501E00F028F800206C608C
:1008A00070BD012070BD0000040000201000002079
:1008B0000C4808B5816941F001018161816901F04D
:1008C00001010091C16941F08051C161C06900F02E
:1008D000805000900448416821F0E06141F00071CF
:1008E000416008BD0010024000000140F0B40E4B12
:1008F0001B680C46C3F30223C3F10705042D00D97E
:100900000425191D072901D2002300E0DB1E012662
:1009100006FA05F1491E214099409E40761E164078
:100920003143F0BC03F09BB80CED00E0064900F049
:10093000070208684FF6FF03184040EA0220034A06
:1009400010430860704700000CED00E00000FA055D
:100950002DE9F0470F46050061D0434E306800F0A6
:100960000700B84209D2306820F0070038433060F1
:10097000306800F00700B84251D128683B4C81072D
:1009800012D5400703D5606840F4E06060602878C5
:10099000000703D5606840F4605060606068A96833
:1009A00020F0F000084360602878C00728D068680D
:1009B000012810D02168022810D0890700292EDADA
:1009C000616821F0030101436160FFF731FF804658
:1009D00041F288390DE021688903EFE78901EDE7ED
:1009E000FFF726FFA0EB0801494502D90320BDE827
:1009F000F0876068696800F00C00B0EB810FEFD100
:100A0000306800F00700B8420BD9306820F00700CA
:100A100038433060306800F00700B84201D0012050
:100A2000E5E72878400705D56068E96820F4E060CC
:100A3000084360602878000706D56068296920F4BB
:100A4000605040EAC100606000F038F86168084A10
:100A5000C1F30311515CC8400649086006480068AC
:100A6000FFF706FF0020C2E700200240001002400E
:100A7000FC4400081000002008000020044805493C
:100A800000684968044AC1F30221515CC8407047BC
:100A900010000020001002400C45000804480549E1
:100AA00000684968044AC1F3C221515CC8407047DC
:100AB00010000020001002400C45000812A185B073
:100AC0000FC98DE80F0014A0144A00680490516803
:100AD000134801F00C03042B10D0082B0ED1C1F3E6
:100AE0008343C9031DF803000AD5516804AAC1F362
:100AF0004041515C0A4A5043B0FBF1F005B07047E9
:100B000008494843FAE700000203040506070809FC
:100B10000A0B0C0D0E0F1010010200000010024015
:100B200000127A0000093D002DE9F84F040070D052
:100B30002078C04DC00749D06868C0F38100012803
:100B400007D06868C0F38100022809D16868C00333
:100B500006D52868800339D560680028E7D035E0DD
:100B60006068B0F5803F0BD010B1B0F5A02F11D068
:100B7000286820F480302860286820F4802002E073
:100B8000286840F480302860606890B1FFF750FE1C
:100B900006460AE0286840F480202860F0E700BF9D
:100BA000FFF746FE801B642873D828688003F7D5BA
:100BB0000CE0FFF73DFE064605E000BFFFF738FEFC
:100BC000801B6428F0D828688003F7D420789A4ED8
:100BD00080074FF001094FF0000839D5686810F020
:100BE0000C0F07D06868C0F38100022809D168683B
:100BF000C00306D42868800714D52069012808D1CD
:100C000010E02069B0B1C6F80090FFF711FE07466A
:100C100005E00AE1FFF70CFEC01B0228C4D82868D3
:100C20008007F7D52868616920F0F80040EAC10024
:100C300028600DE0C6F80080FFF7FAFD074604E0E3
:100C4000FFF7F6FDC01B022823D828688007F7D4D9
:100C5000207800072CD57948A169D9B1C0F8009057
:100C6000FFF7E6FD074604E0FFF7E2FDC01B0228A0
:100C70000FD8686A8007F7D571484FF4FA510068B9
:100C8000B0FBF1F0009000BF0098411E0091FAD235
:100C90000EE080E0C0F80080FFF7CAFD074604E0E0
:100CA000FFF7C6FDC01B022875D8686A8007F7D415
:100CB0002078400760D5E8690027C00008D4E869BB
:100CC00040F08050E861E869012700F08050009012
:100CD0005C480168C90513D40168834641F48071FA
:100CE0000160FFF7A5FD824606E000BFFFF7A0FD0B
:100CF000A0EB0A0064284ED8DBF80000C005F5D54B
:100D0000E06801280AD008B1052813D0286A20F02D
:100D100001002862286A20F0040002E0286A40F0FE
:100D200001002862E06841F2883B98B1FFF780FD3E
:100D300082460BE0286A40F004002862EEE700BF1C
:100D4000FFF776FDA0EB0A0159455AD8286A8007BB
:100D5000F6D50CE0FFF76CFD824605E0FFF768FD75
:100D6000A0EB0A0159454CD8286A8007F6D41FB178
:100D7000E86920F08050E861E06988B36968C1F3F0
:100D80008101022944D00228C6F8608004D0FFF710
:100D90004FFD044638E034E0FFF74AFD074604E023
:100DA000FFF746FDC01B02282BD828688001F7D426
:100DB000206AB0F5803F05D16868A16820F4003052
:100DC00008436860D4E908010843696821F4741194
:100DD00008436860C6F86090FFF72AFD044606E005
:100DE00025E000BFFFF724FD001B022809D8286872
:100DF0008001F7D51BE000BFFFF71AFD001B02289A
:100E000002D90320BDE8F88F28688001F4D40EE0F1
:100E10000128F7D06868226A00F48031914204D139
:100E2000616A00F47010884201D00120EAE70020D6
:100E3000E8E7000000100240000042428004424205
:100E400010000020007000404FF0E02104280869E5
:100E500003D020F004000861704740F00400FAE776
:100E600010B5401EB0F1807F01D3012010BD4FF0BE
:100E7000E02460610F21601702F0F1FD0020A06105
:100E800007202061002010BD10B590F83C20012AF9
:100E900022D0012280F83C20CA688C6822F440727B
:100EA00022434C6822F4806222430C6822F40062E0
:100EB00022430C6922F4805222434C6922F40052EE
:100EC0002243C969002322F480420A4301684A642C
:100ED00080F83C30002010BD022010BD70B590F8A5
:100EE0003C20012A26D0012480F83C40022280F8D0
:100EF0003D2003685A689D6822F070060A683243F4
:100F00005A600D4B02689A4208D0B2F1804F05D06A
:100F10000A4B9A4202D00A4B9A4204D1496825F002
:100F200080031943916080F83D40002180F83C1017
:100F3000084670BD022070BD002C01400004004036
:100F40000008004000B585B0002100910191029198
:100F5000039100680B49884212D10B48816941F026
:100F6000040181618069694600F0040004904FF437
:100F7000807000900220019003900448FFF75EFB10
:100F800005B000BD002C01400010024000080140E7
:100F900070B5044690F83C000D4601280AD00120A7
:100FA00084F83C0042B1042A18D0082A2AD00C2A1E
:100FB0004DD139E0022070BD206800F0F9FB2068B7
:100FC000816941F0080181612068816921F0040193
:100FD0008161206881692A69114311E0206800F06D
:100FE0000FFC2068816941F400618161206881699A
:100FF00021F480618161206881692A6941EA0221C6
:10100000816124E0206800F027FC2068C16941F07C
:101010000801C1612068C16921F00401C161206833
:10102000C1692A69114311E0206800F041FC206881
:10103000C16941F40061C1612068C16921F4806126
:10104000C1612068C1692A6941EA0221C1610020A9
:1010500084F83C0070BD10B5040003D094F83D0046
:1010600010B107E0012010BD002084F83C002046AC
:1010700000F01EF8022084F83D00211D206800F0D9
:1010800053FB012084F8460084F83E0084F83F00BA
:1010900084F8400084F8410084F8420084F843005A
:1010A00084F8440084F8450084F83D00002010BD19
:1010B00008B500680649884208D10648816941F4AC
:1010C00000618161806900F40060009008BD00004B
:1010D000002C01400010024010B50446022249B124
:1010E00004290ED0082913D094F84100012816D005
:1010F000012010BD94F83E000128F9D184F83E206B
:101100000FE094F83F000128F2D184F83F2008E076
:1011100094F840000128EBD184F8402001E084F8E5
:1011200041200122206800F035FB0F4920688842E9
:1011300003D1426C42F4004242642068884208D0E5
:10114000B0F1804F05D00949884202D00849884251
:1011500004D1816801F00701062903D0016841F03C
:1011600001010160002010BD002C0140000400407E
:101170000008004070B5040004D094F83D0000253C
:1011800010B106E0012070BD84F83C50204600F00C
:1011900023F8242084F83D002068C16821F4005120
:1011A000C160204600F0A6FB2068016921F490414F
:1011B00001612068416921F02A0141612068C1680C
:1011C00041F40051C1602564202084F83D0084F87A
:1011D0003E00002070BD000030B585B000240094B2
:1011E00001940294039400681449884224D114485D
:1011F000816941F480418161816901F480410491F8
:10120000816941F00401816180690E4D00F00400A4
:1012100004904FF40070009002200190032003908E
:1012200069462846FFF70AFA2815CDE90004694601
:1012300028460294FFF702FA05B030BD003801409D
:101240000010024000080140FEE708B505208DF8B7
:1012500000009DF80000002803D09DF80000401E0B
:10126000F5E708BD30B585B000241C480094019412
:1012700002940394816941F020018161816901F048
:1012800020010491816941F004018161816901F0CB
:1012900004010491816941F0080181618069104D68
:1012A00000F0080004900122C0212846FFF7BBFA95
:1012B0000420CDE900040220029069460948FFF7A6
:1012C000BDF9C02000901120CDE901040320039056
:1012D00069462846FFF7B2F905B030BD001002405C
:1012E000000C01400008014010B592B000240F949A
:1012F0001C2108A81094FFF791F820216846FFF7F9
:101300008DF821481F4901604F21C0E9011444F2C2
:101310004F61C0E903148021C0E90541FFF79BFE3E
:1013200008B1FFF777F90F940FA917481094FFF74A
:10133000D5FD08B1FFF76EF96020CDE908040A94E5
:101340000B940C940D94002208A90F480E94FFF7FB
:101350001FFE08B1FFF75EF900944FF40050CDE98D
:101360000440029401940394694607480794FFF7E8
:101370008BFD08B1FFF74EF90348FFF7E3FD12B00C
:1013800010BD0000002C0140DC0200200C4810B50C
:101390000A4901604FF4E1314160002181600C2273
:1013A000C160C0E904128161C161FFF7E3FE00285A
:1013B00003D0BDE81040FFF72DB910BD0038014043
:1013C00024030020FEE7FEE77047000010B50F4C35
:1013D000002240212046FFF726FAFFF736FF0122C0
:1013E00080212046FFF71FFAFFF72FFF012240213F
:1013F0002046FFF718FAFFF728FF00224021204679
:10140000FFF711FABDE81040FFF71FBF000C0140C5
:1014100070B5154E08250024012280213046FFF7C3
:1014200002FA16E06006040E002240213046FFF763
:10143000FAF9FFF70AFF012240213046FFF7F3F9DE
:10144000FFF703FF80213046FFF7E8F908B144F0C9
:1014500001046D1EEDB2E5D2002240213046FFF7B7
:10146000E2F9204670BD0000000C014070B5054651
:101470000824134E18E000BFFFF7D5F9FFF7E5FE8B
:10148000280601D5012200E0002280213046FFF726
:10149000CAF96806050EFFF7D8FE01224021304642
:1014A000FFF7C1F9FFF7D1FE641EE4B24FF000026E
:1014B0004FF040013046DFD2BDE87040FFF7B3B9CE
:1014C000000C014010B5154C012280212046FFF789
:1014D000AAF9012240212046FFF7A5F9FFF7B5FE42
:1014E00080212046FFF79AF900280CD000228021A5
:1014F0002046FFF798F9FFF7A8FE80212046FFF766
:101500008DF908B1002010BD002280212046FFF790
:101510008AF9FFF79AFE012010BD0000000C01407F
:1015200010B50F4C002240212046FFF77CF9FFF751
:101530008CFE002280212046FFF775F9FFF785FE1B
:10154000012240212046FFF76EF9FFF77EFE0122BF
:1015500080212046FFF767F9BDE81040FFF775BE10
:10156000000C014010B5164C002240212046FFF728
:101570005AF9FFF76AFE012280212046FFF753F94E
:10158000FFF763FE012240212046FFF74CF9FFF7E9
:101590005CFE80212046FFF741F900284FF0000251
:1015A0004FF04001204605D0FFF73DF9FFF74DFE13
:1015B000002010BDFFF737F9FFF747FE012010BDEF
:1015C000000C01402DE9F041984615460F460646AD
:1015D0000024FFF777FF002846D03046FFF746FF8C
:1015E000FFF7C0FF90B33846FFF740FFFFF7BAFFA1
:1015F000FFF768FF761CF0B2FFF738FFFFF7B2FF86
:101600006E1E1A4F2BE0B44221D0FFF701FF08F8FD
:101610000400002240213846FFF705F9FFF715FEC8
:10162000002280213846FFF7FEF8FFF70EFE012268
:1016300040213846FFF7F7F8FFF707FE0022402168
:101640003846FFF7F0F8FFF700FE06E009E0FFF785
:10165000DFFE08F80400FFF7B9FE641CE4B2AC42F8
:10166000D1D3FFF75DFF0020BDE8F081000C014001
:1016700007B502AB012200F001F80EBD2DE9F041E3
:101680001E461546884607460024FFF71BFF3846CE
:10169000FFF7ECFEFFF766FF4046FFF7E7FEFFF7B8
:1016A00061FF06E0305DFFF7E1FEFFF75BFF641CC2
:1016B000E4B2AC42F6D3FFF733FF0020BDE8F0817F
:1016C0007047FFF7BBB830B58FB028216846FEF7EA
:1016D000A5FE14210AA8FEF7A1FE01210804CDE908
:1016E00000100024029402250491CDE907504FF424
:1016F000E01009906846FFF717FA08B172B6FEE7E6
:101700000F20CDE90A054FF48060CDE90C4002219D
:101710000AA80E94FFF71CF9002801D072B6FEE764
:101720000FB030BD70470000F0B50268164B174C83
:10173000174D4FF08047984205D0B84203D0A042E1
:1017400001D0A84203D122F070064A683243984281
:1017500005D0B84203D0A04201D0A84203D122F460
:101760004074CA6822434C6922F08002224302601E
:101770008A68C2620A688262984201D1096901637B
:1017800001214161F0BD0000002C01400004004037
:101790000008004010B501F01F030121046A9940C0
:1017A0008C430462016A9A401143016210BD00003B
:1017B00030B5026A22F001020262026A436884695B
:1017C00024F073050C682C4322F002058A682A4332
:1017D0000A4DA8420BD122F00805CA6823F44073D1
:1017E0002A434D6922F004021D438B692B43436059
:1017F000846149684163026230BD0000002C0140F1
:1018000030B5026A22F010020262026A43688469FB
:101810000D6824F4E64444EA05248D6822F0200291
:1018200042EA05120B4DA8420ED1CD6822F080028B
:1018300042EA05124D6923F4406343EA85038D694A
:1018400022F0400243EA8503436084614968816372
:10185000026230BD002C014030B5026A22F4807271
:101860000262036A4268C46923F4007324F07305BA
:101870000C682C438D6843EA05230C4DA8420ED119
:10188000CD6823F4006343EA05234D6922F44052F6
:1018900042EA05128D6923F4806342EA0512426030
:1018A000C4614968C163036230BD0000002C01407F
:1018B00030B5026A22F480520262046A4268C36947
:1018C0000D6823F4E64343EA05238D6824F40054AD
:1018D00044EA0534064DA84204D14D6922F4804201
:1018E00042EA85124260C36149680164046230BD06
:1018F000002C014070B5044600680169E26821F4DB
:101900004051114301612169A0680843616908439E
:101910002168CA6841F20C639A430243CA60206896
:101920004169A26921F44071114341611E49206857
:10193000884202D1FFF7B2F801E0FFF79FF800EB11
:10194000C00101EB0012606864218000B2FBF0F37B
:10195000B3FBF1F36FF018067343B2FBF0F5B2FB83
:10196000F0F605EB8305322303EB0515B5FBF1F526
:10197000B6FBF1F605F0F00505EB0615B2FBF0F647
:10198000B2FBF0F0B0FBF1F06FF01802504306EB41
:10199000800003EB0010B0FBF1F0216800F00F00B5
:1019A0002844886070BD000000380140FEE7000058
:1019B0007CB50446002094F8DA200D46012A03D0B5
:1019C000022A01D0032A14D101AB6A460121204624
:1019D00000F091F9009A4FF47F018A4202D8019AEF
:1019E0008A4206D9002804D125B10F49204601F0CA
:1019F000FDFC7CBD0422FF21204600F085FE05464B
:101A000000227021204600F07FFE05430022FF21C6
:101A1000204600F079FE054300228021204600F098
:101A200073FE28437CBD000007010020F8B5064680
:101A3000002401220B21304600F066FE07460022FA
:101A40000B21304600F060FE40EA07056A4613218C
:101A5000304600F034FB641C9DF800102843E4B2CB
:101A6000490704D0032C04D20028E2D0F8BD032C8F
:101A7000FCD36FF00B00F8BDF0B591B00446002226
:101A8000882100F041FE002584F8F0504FF47A7070
:101A9000A4F852014FF4C870A4F854015748C4F890
:101AA000580157482562C4F8D4006946204600F022
:101AB000A9F8060009D18DF800508DF80150402298
:101AC000694604F11000FEF777FC6420A4F83401A5
:101AD0004FF46170A4F836014FF4FA70A4F838019D
:101AE0004FF42060A4F83C01012784F850713A4675
:101AF0008021204600F008FE06430122FF212046F7
:101B000000F002FE064300221146204600F0FCFDD4
:101B1000064310AA9121204600F0D1FA06439DF811
:101B2000400084F83A0101220021204600F0ECFD3B
:101B300006430022FF21204600F0E6FD0643002276
:101B40008021204600F0E0FD30430026002852D1DD
:101B5000B1B20122204600F0B5FB761C062EF5DB63
:101B6000002848D100220221204600F0ABFB0028CB
:101B700041D100220321204600F0A4FB00283AD1E5
:101B800000220421204600F09DFB002833D10022D2
:101B90000521204600F096FB00282CD14FF490122E
:101BA0000021204600F0CFFB002824D14FF48042D2
:101BB0000121204600F0C7FB00281CD14FF40C1275
:101BC0000221204600F0BFFB002814D1002203218F
:101BD000204600F0B8FB00280DD1FF2084F830012A
:101BE00002460121204600F08FFD84F83271002862
:101BF00001D184F8155111B0F0BD0000856B0100D2
:101C0000A470090070B506460C46007C01F8080B6C
:101C1000304600F044F8002833D1207304F110015D
:101C2000304600F0E8F900282BD104F114013046C9
:101C300000F0E4F8002824D1002501E0002820D19C
:101C400004EB8502A9B23046243200F07BF800286C
:101C500017D16219A9B23046183200F066F86D1C2F
:101C6000062DEBDB00280CD104F13C01304600F0DE
:101C7000A7F9002805D1211D3046BDE8704000F0CD
:101C8000BBB870BD10B50C460A46092100F017FA22
:101C9000002803D1217801F00101217010BD3EB56B
:101CA0000C46054602AAF82100F028FA00280ED1B9
:101CB0006A460421284600F00BFA002807D1BDF837
:101CC000081029B1009AB2FBF1F12160A9613EBD73
:101CD0002168FBE738B50C466A46132100F0EFF99E
:101CE0009DF8001001F0070211F0180F226001D0DA
:101CF0006FF0050038BDF8B515461C4606466A4625
:101D00000E2100F0FBF9BDF800100905C908296093
:101D1000002809D16A460C21304600F0EFF9BDF8E1
:101D200000100905C9082160F8BD034600200629F6
:101D300002D3001F002102E0194491F8281011700D
:101D400070470000F8B504460020154606292ED23B
:101D5000DFE801F00305191B1D1D646B25E06A46D1
:101D60004421204600F0CAF9002803D1BDF8001034
:101D70004FEA412606D1EEB12E604FF00101A66375
:101D800084F82910F8BDE46B0FE0246C0DE06A467E
:101D90004FF06401204600F0B1F9002804D100BFE3
:101DA000BDF800104FEA4124ECD12C60F8BD6FF073
:101DB0000300F8BDA16B29604FF00001E0E77CB59E
:101DC0000C4690F8DA100025012604290AD06A464C
:101DD000142100F074F900280BD19DF80010C907F8
:101DE00006D007E001A9FFF775FF0199042901D08A
:101DF00025707CBD26707CBD01F036B901F096B926
:101E0000F0B58DB00C4605460C2302AA142100F053
:101E100085F906007ED10021A17521609DF813008F
:101E20009DF81220616000EB02209DF80F209DF8C4
:101E30000E304FF47A7E02EB03221204D209E260E4
:101E40009DF811309DF8106080B203EB06231B044F
:101E5000DB0923619DF80B309DF80A6003EB062334
:101E60009BB2A382B5F852619DF8087095F831C114
:101E700076451FD0464306F5FA7696FBFEF02E8C8B
:101E800095F81CE080B2B6B2BEF1000F12D05E43EE
:101E9000B2EB262F08D1BCF1000F02D042F2B820DD
:101EA00008E048F6E0200DE05043A2EB2626B0FB08
:101EB000F6F080B2BCF1000F04D0810821818001CE
:101EC000E07501E02081E1750CA8CDE900403946BC
:101ED000284601F045F9060025D19DF8300020760E
:101EE00005F150011C220D4605A8FEF765FA208970
:101EF000ADF81C00E07D8DF82B006089ADF81E0068
:101F000060680690E068089020690990A08AADF8A2
:101F1000280000E007E0207E8DF82C001C2205A997
:101F20002846FEF749FA0DB03046F0BD38B50546F3
:101F300000200C468DF800006A460121284600F07A
:101F4000BEF800282AD123469DF80020002128460B
:101F500001F0C6FF002821D1A31C9DF8002001211B
:101F6000284601F0BDFF002818D1631C9DF8002011
:101F70000221284601F0B4FF00280FD1E31C9DF890
:101F800000200321284601F0ABFF002806D1231DC5
:101F90009DF800200421284601F0A2FF38BD000072
:101FA00010B5054C206800F059F8D4E90001FFF79E
:101FB00027FF6068008910BDD002002001F0E8B959
:101FC00038B50C4605466A46012100F078F800282D
:101FD0000BD19DF8001085F83011090601D50121BB
:101FE00000E00021217085F84C1038BD0246002029
:101FF000127F0A70704738B50D4604466A462021A4
:1020000000F07CF8002807D1BDF8001029B1C90004
:10201000296021620121217738BD216A29600021D0
:10202000F9E7000010B50C4C5221206880F85C11D3
:1020300000F07EF80121206800F0AFF9012120684E
:1020400000F07AF80A21206800F024F92068BDE841
:102050001040FFF711BD0000D002002070B5047CD5
:10206000054614B900F014FA10B9284601F010FA28
:1020700050EA040102D1032185F8321170BD70B518
:102080000C460546002100F057F8002810D12846DC
:10209000FFF7E4FF00280BD121462846FFF7B0FEEA
:1020A000002805D12846BDE870400021FFF7BEBCDE
:1020B00070BD10B5052001F0EDFC002010BD10B57D
:1020C000134690F85C010122FFF77CFA40B210BD84
:1020D00038B5144690F85C016B460422FFF772FA9B
:1020E0009DF8030020709DF8020060709DF80100CB
:1020F000A0709DF80000E070002038BD38B514468F
:1021000090F85C016B460222FFF75CFA9DF8010033
:1021100020709DF800006070002038BD10B5DCB262
:10212000134690F85C012246FFF74CFA40B210BD0E
:102130004A088A2100F0E8BA0246002003290BD0A1
:1021400003DC49B1012904D106E0142904D0152982
:1021500002D06FF0070070471174704770B51C46CD
:10216000049E054611B16FF0090070BD142A08D015
:10217000152A0FD0052C6FD2DFE804F066686A6C70
:102180006F002EB10122BDE87040842100F0BCBA7E
:102190001022F8E70122FF2100F0B6FA04460022DF
:1021A0001146284600F0B0FA04430022FF212846D9
:1021B00000F0AAFA044301228021284600F0A4FA84
:1021C000044302228521284600F09EFA044304229B
:1021D000FF21284600F098FA04430022CD2128462A
:1021E00000F092FA04431122CC21284600F08CFA28
:1021F00004430722FF21284600F086FA0443002208
:10220000BE21284600F080FA04430622FF2128461A
:1022100000F07AFA04430922CC21284600F074FA2F
:1022200004430022FF21284600F06EFA04430122F5
:10223000FF21284600F068FA044300221146284690
:1022400000F062FA204370BD002207E0012205E0A1
:10225000022203E0032201E017E004220A212846BB
:1022600000F052FA0028EED196B11023EF2284211B
:10227000284600F031FA0028E5D185F8DA402846F2
:10228000BDE870400021FFF7D1BB6FF00A0070BDC0
:102290000023EBE738B50C4605466A46F821FFF700
:1022A0002DFF00280DD1BDF8000010B104FB00F295
:1022B00000E022460421284600F02DFA002800D133
:1022C000AC6138BD2DE9F041044600200D461646AC
:1022D000071F034601460246062D02D33846BDE8D5
:1022E000F08156B104EB85014B6B0121062DF5D22F
:1022F000DFE805F005080F1215180122F6E784F84B
:10230000281017E0C3F34F224421204600F017FAAB
:102310000EE084F82A100DE084F82B100AE0530038
:10232000FE2201E01301EF226021204600F0D4F9E3
:102330000028D4D1611926B15FF0010281F828206C
:10234000CDE70022FAE770B514460022431800EBEF
:10235000810593F82830DBB1C4F34F23062914D24A
:10236000DFE801F00305080A0C0C446310E01A468C
:10237000442105E0C4630BE0046409E01A466421CB
:1023800000F0DDF9020003D003E06FF0030200E08B
:102390006C63104670BD01F0AEBA70B504460225FC
:1023A00091B1022902D06FF0070070BD0022802198
:1023B00000F0AAF90028F8D1204600F0D3F8002850
:1023C000F3D184F8335170BD0022802100F09CF9D4
:1023D0000028F8D184F83251002184F8331170BDFF
:1023E0002DE9F8430746002090460E468DF8000080
:1023F0006A4601213846FFF762FE05009DF800009D
:1024000004462ED1291FB8F1010F06D0052E2CD27B
:10241000DFE806F0191C1F222500052E25D2DFE873
:1024200006F00306090C0F0044F0100419E044F014
:10243000280416E044F0040413E044F0400410E0E3
:1024400044F080040DE004F0EF040AE004F0D70447
:1024500007E004F0FB0404E004F0BF0401E004F032
:102460007F04844210D015B10EE00D460CE02246E8
:102470000121384600F048F9050005D187F83041C0
:1024800038467969FFF787FF2846BDE8F8830000E2
:10249000F8B501250646047C2A46802100F034F96F
:1024A0000122FF21304600F02FF90022114630466C
:1024B00000F02AF996F83A219121304600F024F9EB
:1024C00001220021304600F01FF90022FF21304692
:1024D00000F01AF900228021304600F015F93CB1D5
:1024E0000425012C26D0032C2FD06FF00700F8BD57
:1024F00001220021304600F007F98DF80050002835
:10250000F5D100244FF4FA6705E024B16A460021B2
:102510003046FFF7D4FD9DF80020641C25EA020137
:10252000014304D0BC42E2D36FF00600F8BDBC42C8
:10253000EBD3F9E718B901213046FFF739FA022247
:1025400009E000BF86F83251F8BD18B901213046C4
:10255000FFF72EFA04220021304600F0D5F80028BB
:10256000F0D0F8BD30B597B00446402101A8FDF782
:1025700055FF00258DF84450ADF850508DF854505B
:1025800001212046169500F0DBFA94F8142194F806
:102590001311012A06D802D1202903D808E03AB93C
:1025A0000C2905D915AA16A9204600F0E6FF02E07D
:1025B000204601F001FA474900287DD194F85001E6
:1025C00008B9D4F84C11204600F010FF00287ED145
:1025D00000220423114620460095FFF7BFFD002886
:1025E00075D10122FF21204600F08EF8054614AA7D
:1025F00084212046FFF782FD05430022FF2120466B
:1026000000F082F8284362D1BDF8500001A9000112
:10261000C4F8D4002046FFF7F5FA002857D111A9D5
:102620002046FFF72FFB002851D19DF8440084F885
:102630003101402201A904F11000FDF7BDFE11AAED
:1026400001212046FFF73BFD002840D19DF84400C2
:1026500084F83001002211462046FFF7C1FE002811
:1026600035D1002202212046FFF7BAFE00282ED1E4
:10267000032084F8320112AA00212046FFF79EFCB5
:10268000002824D19DF8480084F8E80012AA01210E
:102690002046FFF793FC002819D19DF8480084F8E4
:1026A000E00013AA0321204601F0BBFA00280ED156
:1026B000139813AA042100E009E0C4F8E4002046BE
:1026C00001F0AFFA002802D11399C4F8DC1017B05A
:1026D00030BD000014000020F8B51D461646044623
:1026E0000F4690F85C016B460122FEF76BFF9DF8E8
:1026F0000020394632402A438DF8002094F85C01CE
:10270000FEF7B6FF40B2F8BD10B590F85C01FEF7D9
:10271000AFFF40B210BD08B5130E8DF80030130C9A
:102720008DF80130130A8DF802308DF8032090F8EF
:102730005C016B460422FEF7A1FF40B208BD08B55C
:10274000130A8DF800308DF8012090F85C016B467B
:102750000222FEF793FF40B208BD10B5DCB213466B
:1027600090F85C012246FEF789FF40B210BD0000E0
:102770002DE9F047B0F854C1D0F85801DDE90A86D8
:102780000CFB00F58035DDE908972C0A4FF0000AB4
:1027900004FB0CF4554652B1880200EB5200B0FB2A
:1027A000F2F000EB4000404300F50040050C07F557
:1027B0000040000C0622C01CB0FBF2F003FB09F342
:1027C00003F50043190C4943C0EBC000B0F5803F4E
:1027D00001D31C4808E0FF1CB7FBF2F0C0EBC000BF
:1027E00000F50040000C4043084400EB5800B0FBEB
:1027F000F8F08003FE227F30B0FBF2F068434FF424
:102800007A7100F5FA70B0FBF1F0000100F5FA7092
:10281000B0FBF1F7402004F12001B1FBF0F000F033
:10282000CFFD054627B104EB5700B0FBF7F000E001
:10283000002000F0C5FD3560854200D9306050466B
:10284000BDE8F0870000F0FF01EBC10140F27760C6
:102850000902A1FB000170472DE9FF4F87B0044634
:10286000006A0690884608694FF47A714843000C64
:102870000390D8F80C000590DFF8F8B14FF4481633
:1028800004AA4146204600F05EFD06AA41462046C5
:1028900000F067FD81464FF47A710498069D484325
:1028A00000F50040070C4D43B54200D93546B9F15B
:1028B000000074D1D4F8DC00019094F8E060014687
:1028C0003246204600F0DCF88246D4F8E40000905E
:1028D000014694F8E820204600F0D2F80146032093
:1028E000082E00D1022051444143C9024FF47A70AE
:1028F00001F5FA71B1FBF0F140F27762514301F555
:10290000FA71B1FBF0FA04988030010A01FB0AF079
:102910008030060A080204900FB14EB109E009990F
:10292000C1F800B0C4F840B10A98002101609CE0F1
:1029300001264FF44870029003984F490004B0FB01
:10294000F7F0884200D908464FF4167100FB01F9F0
:1029500006EB4600800000F033FD40000390B8F81D
:10296000081046486A424143380400EB42024FF4E3
:102970007A7002F5FA72B2FBF0F2431003EB0743F0
:10298000B3FBF0F01202B2FBF0F0002800DA404294
:1029900098F8182000021AB14FF480350FE065E076
:1029A00041F25C22B1FBF2F1C0F58030484300F502
:1029B0000040000C00F5803040084043850B4FF488
:1029C000487105FB01F000F50040010C09F50040DD
:1029D000000C49434043084400F0F2FC0004642129
:1029E0003230B0FBF1F10398B1FBF0F040F6B531B5
:1029F000484341F2883108444900B0FBF1F74FF4F5
:102A00007040874200D90746DDE9001008444FF4C2
:102A10007A7800F5FA70B0FBF8F04FF4C81101EBCA
:102A20005001B1FBF0F000F0CBFC000200F5FA70B1
:102A3000B0FBF8F07F434043384400F0C1FC41460E
:102A400048430EB1584500D9584609990860C4F862
:102A500040010A98029B03908DE80806DDE9041204
:102A60002B462046FFF784FE814648460BB0BDE862
:102A7000F08F0000AE878F02666666009A990600A6
:102A800000B50B461146FFF7DFFE4FF47A7100F5F3
:102A9000FA70B0FBF1F04B4303EB5001B1FBF0F0E7
:102AA00000BD00B50B461146FFF7CEFE4FF47A711C
:102AB00000F5FA70B0FBF1F0434303F5FA73B3FB92
:102AC000F1F000BD0146C0B2090A8840401C7047C1
:102AD0004000801CC0B27047F8B506460022832132
:102AE000FFF712FE040011D100254FF4FA676A4681
:102AF00083213046FFF7E3FA04469DF800002043A7
:102B00000BD0BD4202D300BF6FF006040122832127
:102B10003046FFF7F9FD2043F8BD6D1CBD42E6D3FA
:102B2000F2E70022114648B1401E02E04008491C6D
:102B300089B2020AFAD161F31F2082B210467047AF
:102B40002DE9F04F95B0002504460E954FF4C8507E
:102B50000F95CDE90450129594F8F0600F46AB46FE
:102B6000AA46072E7ED0012280212046FFF7CCFD09
:102B700080460122FF212046FFF7C6FD40EA0805F6
:102B8000002211462046FFF7BFFD40EA0508062255
:102B9000FF212046FFF7B8FD40EA080502AA83217D
:102BA0002046FFF78CFA40EA05089DF808008321CB
:102BB00040F004022046FFF7A7FD40EA080507227F
:102BC000FF212046FFF7A0FD40EA050801228121F0
:102BD0002046FFF799FD40EA08052046FFF769FA0D
:102BE00040EA0508012280212046FFF78DFD40EADA
:102BF0000805F80755D0F00753D16B2294212046E1
:102C0000FFF782FD40EA05082046FFF765FF40EA2E
:102C1000080501AA90212046FFF75AFA40EA050864
:102C200001982422C0F30621C0F3C03B12919421E5
:102C30002046FFF769FD40EA08052046FFF74CFFF4
:102C400040EA050801AA90212046FFF741FA40EA30
:102C500008050198010E8DF82C10010C8DF82D102F
:102C6000010A00E0FCE18DF82E108DF82F002522DE
:102C700094212046FFF748FD40EA05082046FFF76B
:102C80002BFF40EA080901AA90212046FFF720FA0D
:102C900040EA09050198010E8DF83010000C8DF8FE
:102CA0003100B8077ED5B0077CD40222942120469B
:102CB000FFF72AFD40EA05082046FFF70DFF40EA2E
:102CC000080513AA90212046FFF7F9F940EA050804
:102CD0007B2294212046FFF717FD40EA0805204695
:102CE000FFF7FAFE40EA050810AA90212046FFF7F8
:102CF000E6F940EA0805772294212046FFF704FD13
:102D000040EA05082046FFF7E7FE40EA080501AA69
:102D100090212046FFF7DCF940EA05080198782267
:102D2000410E8DF81810C0F386418DF81910C0F3CC
:102D3000C6218DF81A10C0F306110007400E8DF859
:102D40001B108DF8080094212046FFF7DDFC40EAB7
:102D500008052046FFF7C0FE40EA050801AA9021B9
:102D60002046FFF7B5F940EA08059DF808100198DC
:102D700001EB50718DF81C10C0F386518DF81D10B9
:102D8000C0F3C6318DF81E10C0F306218DF81F1058
:102D9000C0F34601C007400E8DF820108DF80800E2
:102DA000792200E055E094212046FFF7ADFC40EA8F
:102DB00005082046FFF790FE40EA080501AA902189
:102DC0002046FFF785F940EA05089DF808100198AC
:102DD0007A2201EB90618DF82110C0F3C6418DF885
:102DE0002210C0F306318DF82310C0F34611C0063F
:102DF000400E8DF824108DF8080094212046FFF72E
:102E000083FC40EA08052046FFF766FE40EA050815
:102E100001AA90212046FFF75BF940EA08059DF8DA
:102E20000810019801EB90718DF82510C0F3C65180
:102E30008DF82610C0F306418DF82710C0F3462107
:102E40008DF82810C0F386008DF8290000208DF839
:102E50002A0078077ED570077CD47B2294212046F7
:102E6000FFF752FC40EA05082046FFF735FE40EA2E
:102E700008050EAA90212046FFF72AF940EA050826
:102E80007C2294212046FFF73FFC40EA08092046B7
:102E9000FFF722FE40EA09050FAA90212046FFF71E
:102EA00017F940EA0508732294212046FFF72CFC0D
:102EB00040EA08052046FFF70FFE40EA050801AA90
:102EC00090212046FFF704F940EA08050198742292
:102ED00000064FEA104994212046FFF715FC40EA0E
:102EE00005082046FFF7F8FD40EA080501AA9021F1
:102EF0002046FFF7EDF8019940EA050849EA11601C
:102F00000490752294212046FFF7FEFB40EA080555
:102F10002046FFF7E1FD40EA050901AA902120467D
:102F2000FFF7D6F840EA09080198762200064FEA32
:102F3000104994212046FFF7E7FB40EA08052046A8
:102F4000FFF7CAFD40EA050801AA90212046FFF7D5
:102F5000BFF800E004E0019940EA080549EA116A77
:102F6000002281212046FFF7CFFB40EA0508062218
:102F7000FF212046FFF7C8FB40EA080502AA83218B
:102F80002046FFF79CF840EA05089DF808008321D9
:102F900000F0FB022046FFF7B7FB40EA08050122DC
:102FA000FF212046FFF7B0FB40EA0508012200217F
:102FB0002046FFF7A9FB40EA08050022FF21204632
:102FC000FFF7A2FB40EA0508002280212046FFF718
:102FD0009BFB50EA080543D1F8070FD0F0070DD14D
:102FE000129884F8130184F814B100200BA9231857
:102FF0000A5C401C83F82A210628F8DBB8070ED5A6
:10300000B0070CD49DF84C0084F8F1009DF8400006
:1030100084F8F20004F1F30006A9FDF7A9F9780796
:1030200019D5700717D40E98C4F818010F98C4F872
:103030001C0104984002C4F820010020BAF1000FDE
:1030400008D00599AAEB01004FF47A114843001407
:10305000404200B2E0603E438DF8086084F8F060C2
:1030600015B02846BDE8F08F30B585B005464FF461
:10307000FA6002900020039040F6363008600C465B
:1030800069462846FEF752FF00284DD19DF80010F2
:1030900029B99DF8011011B99DF8021011B302AAC7
:1030A0000221284600F0BDFD00283DD19DF800100A
:1030B00029B10299226801F24E21114421609DF844
:1030C000021031B10299226801F2B22102EB4101F2
:1030D00007E09DF8011029B10299226801F52571D8
:1030E000114421609DF8031061B103AA0321284611
:1030F00000F097FD0399226801F5257111442160C4
:10310000002811D19DF8041061B104AA04212846B9
:1031100000F087FD0499226801F226211144216004
:10312000002801D12168696105B030BD38B50C4671
:1031300040F2FF756A462821FEF7E0FF00280DD116
:10314000BDF80010C1F30B02ADF80020AA424FF009
:10315000FA0101DDA2F580524A43226038BD000029
:103160002DE9FF4F8BB04FF00009199D8DF80090AD
:103170009A460646C8464F468DF804908DF808904A
:103180008DF80C90ADF81090C1F3C304CDF81490F5
:10319000BCB1052C15D0072C13D00C2C11D00D2C44
:1031A0000FD00E2C0DD00F2C0BD0002083466A467A
:1031B00000213046FEF7B9FD9DF80010C9B110B1ED
:1031C0001DE00120F2E705AB06AA30461899FFF78B
:1031D00043FBA0B91899059807AA488100213046F9
:1031E000FEF7B0FD079921B1069A8A4201D94FF046
:1031F000010920B902AA02213046FEF796FD9DF88A
:10320000081011B338BB08AA02213046FEF79AFD18
:1032100080B90122FF213046FFF776FA50B904AA9F
:10322000B6213046FEF76AFF20B90022FF21304662
:10323000FFF76AFABDF810104902C6F84811089A5B
:103240001AB1914201D94FF0010820B903AA032114
:103250003046FEF76AFD9DF80C1091B190B9BAF1B5
:10326000000F12D00D980102B1FBFAF0824609AAB4
:1032700003213046FEF766FD099911B18A4500D257
:10328000012720B1287858B32DE00020EEE7BBF1EC
:10329000000F01D0FF2013E0012C10D0022C0ED023
:1032A000032C0CD0062C0DD0092C0BD0082C04D0EC
:1032B0000A2C02D0B8F1000F06D0032000E0052050
:1032C000287010E00420FBE7042C00D00FB102208E
:1032D000F6E7B9F1000F01D00120F1E700202870D6
:1032E00018990020488101AA01213046FEF71DFDF2
:1032F000002825D19DF8001011B15FEA090100D026
:10330000012186F82E10042C15D09DF8041091B1DF
:103310005FF0000186F82F109DF8081011B15FEAE8
:10332000080100D0012186F830109DF80C1001B181
:103330001FB1012102E00121ECE7002186F83110E4
:103340000FB0BDE8F08F38B51446CA6822606A46EF
:1033500000F007F8002803D12168009A1144216089
:1033600038BDF8B5064600200D4610601446694683
:103370003046FEF73BFE002809D19DF800100029D9
:1033800005D0A98A326A51438031090A2160F8BD0B
:1033900038B5144621B1012905D06FF003010DE0C5
:1033A0006A46502101E06A467021FEF788FE01005E
:1033B00004D19DF80000FFF78BFB2070084638BD54
:1033C000024600204FF0804100E089089142FCD87D
:1033D00008E04318934203D8D21A01EB500000E0F2
:1033E000400889080029F4D170470000F8B5074665
:1033F00000200D460446061F13E0CBB2641CFF2BD1
:1034000005D0042B0CD8295D00206A4639E0295DDF
:10341000641C61B1012912D0022918D003291ED0E1
:103420003046295D002901D00028E6D0F8BD2A5D8C
:10343000641C295D01EB0221A7F8341116E0295D17
:10344000641C2A5D02EB0121A7F836110EE02A5D0B
:10345000641C295D01EB0221A7F8381106E0295D03
:10346000641C2A5D02EB0121A7F83C11641C295D54
:103470000029C2D1F8BD00BF15F804C002F800C091
:10348000401C641C9842F7DB3846FFF766F9C8E732
:10349000F8B5064600208DF8000004464FF4FA65A2
:1034A00069463046FEF78BFC002807D19DF80010D6
:1034B000012903D0641CAC4201D3C01FF8BD3046C3
:1034C000FEF7F7FDECE72DE9F04385B01D009146CE
:1034D0000E4607464FF0000401D097F83041022213
:1034E0000121FFF711F94FF0000838B900213846E3
:1034F00000F052F910B9B9F1010F11D086F800802F
:1035000000280AD1002D08D0224601213846FFF7B5
:10351000FBF8002801D187F8304105B0BDE8F08301
:10352000012004A9CDE90016CDE9028042460146FA
:103530001346384600F086F9E2E72DE9F0411E46D1
:103540001746054690F830410023324600F040F916
:10355000002810D10023324639462846FFF7B3FF32
:10356000002808D1224601212846FFF7CDF800287F
:1035700001D185F83041BDE8F0812DE9F74F96B0D3
:1035800006462C200B9000200E9011908DF84C00D8
:103590008DF850001290B6F83CA14FF0B4094FF0EE
:1035A000030B01464FF00608074672180020491C1D
:1035B00082F824014145F8D30122FF213046FFF76C
:1035C000A3F8040079D100224F213046FFF79CF880
:1035D0000400F7D12C224E213046FFF795F8040065
:1035E000F0D10022FF213046FFF78EF80400E9D128
:1035F0004A46B6213046FFF787F80400E2D10022A0
:1036000080213046FFF780F80400DBD1002314AAA4
:1036100013A93046FFF791FF0400D3D106F592734A
:103620000EAACDF8008006930E90CDE903B29A1D44
:103630000A92CDE901900146304600F053FA0400A9
:103640003BD109A930460E9D00F018FC040034D18E
:10365000BDF82410514531D900213218401C82F8A0
:1036600024114045F9D300E06D1C09EB050000F082
:1036700051FB10B90B988542F6D301200EA9CDF865
:1036800000801590CDE903B1CDE9019501463046A2
:10369000069B0A9A00F026FA040079D109A930465F
:1036A0000E9D00F0EBFB040072D1BDF824105145D3
:1036B00005D901205F46129001E051E0159089B2D2
:1036C000514555D2159812905F4642460FA806996B
:1036D000FCF772FEBDF82410B1EB0A0000D54042A1
:1036E000834611AB2A4641460A9800F067FA1198C2
:1036F000411C0FD0484400F00DFB159988422ED193
:10370000119D41462A467F1C069800F035FA0400B8
:1037100003D03DE06FF031043AE030466D1C06996D
:1037200000F0FAFB040033D109A9304600F0A6FBF3
:1037300004002DD1BDF82410B1EB0A0000D54042A1
:1037400051450ED958450AD90FA9304600F0E4FB7F
:10375000044642460FA90698FCF72EFE7F1E3CB198
:1037600016E0834642460FA80699FCF725FEB8E707
:1037700017980760189912980870012086F81501AB
:103780001798007886F813011898007886F81401C5
:1037900019B02046BDE8F08F10B541F00102044693
:1037A0000021FEF7B1FF002811D12046FFF770FE7F
:1037B00000280CD100212046FEF738F9002806D158
:1037C00020460022BDE810401146FEF79DBF10BD07
:1037D0002DE9F04385B04FF000051E0091460F46DD
:1037E00080462C468DF8105001D098F830510122B7
:1037F0001146FEF789FF38B940214046FFF7CCFF5C
:1038000010B9B9F1010F10D03C7000280AD1002E78
:1038100008D02A4601214046FEF776FF002801D154
:1038200088F8305105B0BDE8F083012004A9009765
:103830000394CDE90110224601461346404600F0AC
:1038400001F8E2E72DE9FF4F81B00020DDE90EA984
:10385000DDE910650F468DF800009B460122FF212F
:103860000198FEF751FF0446002211460198FEF729
:103870004BFF40EA04080022FF210198FEF744FFB5
:1038800040EA08046FB12EB15246CB210198FEF7F1
:1038900016FC0443A5B16A46EE210198FEF70FFC21
:1038A0000DE02EB1CB21039A0198FEF72DFF0443C2
:1038B00035B15B468022EE210198FEF70DFF0443EF
:1038C0000122FF210198FEF71FFF0443012200217E
:1038D0000198FEF719FF04430022FF210198FEF72B
:1038E00013FF9DF80010204301F0EF0289F800203B
:1038F00005B0BDE8F08F2DE9FF4107464FF4FA60AF
:1039000002900020039044F620600E466FF00305FD
:1039100081424FD3A6F6363469463846FEF706FB99
:10392000002844D19DF8001029B99DF8011011B963
:103930009DF8021001B302AA0221384600F071F985
:10394000002834D19DF8001029B1029901F24E21CE
:10395000A1422FD2641A9DF8021021B1029901F2FE
:10396000B221490005E09DF8011029B1029901F545
:103970002571A1421ED2641A9DF8031061B103AAF9
:103980000321384600F04DF9039901F52571A14254
:1039900010D2641A00280AD19DF80410002906D01C
:1039A000A4F226220421384600F0BBFA7E6104B05E
:1039B000BDE8F0812846FAE72DE9F04790468946B0
:1039C00086B004460025B42606274FF02C0A0122B3
:1039D000FF21FEF799FEB0B900224F212046FEF7E5
:1039E00093FE80B92C224E212046FEF78DFE50B961
:1039F0000022FF212046FEF787FE20B93246B6217D
:103A00002046FEF781FE002001462218401C82F865
:103A10002411B842F9D3B8F1000F01D106E06D1CB2
:103A2000701900F077F908B95545F8D305A9009742
:103A3000CDE90391CDE9016504F592739A1D4146E4
:103A4000204600F04FF8002806D1012184F8151116
:103A500084F8139184F8148106B0BDE8F087090753
:103A6000090E002804DB00F1E02080F80014704704
:103A700000F00F0000F1E02080F8141D704770473F
:103A800010B504460420FDF7DFF90148046010BDBD
:103A9000D802002070B5054600244FF47A7603E082
:103AA000304600F005F8641CAC42F9D370BD00004C
:103AB00070B54FF0E024002265690949A3690968DF
:103AC0004843A1699942FCD002D2A3EB010302E072
:103AD000A5EB010633441A440B468242F1D370BD74
:103AE000D80200202DE9FF4F83B00024DDE9125AEF
:103AF000149F9B46DDF8409026466FF031080095F4
:103B00001AE06B462A464946059800F057F8009897
:103B1000411C06D01199084400F0FCF80499884231
:103B200002D044463D6023E0009D49462A4658465F
:103B300000F022F86D1C761C5645E2D33D60BCB9FE
:103B40005946039800F0E8F9040011D101A903983F
:103B500000F062F80446002001A907E01BF80020ED
:103B60000B5C9A4201D0444602E0401C4845F5D324
:103B700007B02046BDE8F08F70B50825B2FBF5F31D
:103B8000B2FBF5F60446002005FB16228B4202D359
:103B90006FF0310070BDE15C012595402943E1548F
:103BA00070BD000004490A685206FCD5024AC1B241
:103BB000121D116070470000003801402DE9F043EC
:103BC000082581464FF0FF301860B2FBF5F0B2FBDC
:103BD000F5F605FB10274FF0000C304615E00022EB
:103BE00019F80040B04202D1FC403A460AE05FEAD0
:103BF000C47805D000FB05224FF0010C1A6003E0E9
:103C00006408521CAA42F2D3401C884202D2BCF182
:103C1000000FE4D0BDE8F08306230A46B021FEF78A
:103C20007DBA2DE9F04100248AB0174680468DF810
:103C30001C402546ADF81840264641B1012906D062
:103C4000022904D0032912D0042929D05DE06A4654
:103C500000214046FEF7B2F9040005D107AA46212B
:103C60004046FEF72CFA04469DF81C0015E06A4613
:103C700000214046FEF7A2F9040046D16A46002121
:103C80004046FEF79BF9040005D106AA51214046A3
:103C9000FEF734FA0446BDF81800FEF713FF2DE0D6
:103CA00004A94046FEF742F99DF81300002590B1A3
:103CB0006A4600214046FEF781F904001DD106AA9C
:103CC00051214046FEF71AFA0446BDF81800FEF7E7
:103CD000F9FE85B28CB96A4601214046FEF76EF9BD
:103CE00004000AD108AA71214046FEF707FA0446EB
:103CF000BDF82000FEF7E6FE86B2701B81B29DF88B
:103D000000204046FEF7CDFE05463D600AB0204645
:103D1000BDE8F0810146044A8909012052F82110CA
:103D2000002900D100207047C00200200EB5FCF72A
:103D30008DFDFDF7C8FC4820FFF7A2FEFDF792FAC3
:103D4000FDF724FBFDF7D0FA00213148FDF7C4F957
:103D5000002427462FA232A134A0FCF763FA39A031
:103D6000FCF760FAFEF75EF90020DFF8A4900290FD
:103D70000090064683460DF108080190D9F800101E
:103D80004FF4167048633CE0694601EBCB054FF4F5
:103D9000E16A00BFD9F8001004F5167048632046A8
:103DA00000F0CAFA00222D4B00F06EF900F03AF94B
:103DB0000746FEF7F5F80A3848F826003846761C1C
:103DC00000F026FB0A345445C5E90001E2D102E0C7
:103DD000002FD9D057B14D460320FCF71DFC2968B0
:103DE00004F5167048630A3CF6D100275FF0000521
:103DF000294658F825201AA0FCF714FA6D1CB42D9A
:103E0000F6DB04211C48FCF709FD0128B6D1DFE7E9
:103E1000DC02002031363A32363A323600000000F9
:103E20004D6172203330203230323300436F6D7079
:103E3000696C652054696D653A20257320202573CF
:103E40000A00000053656E736F7220564C35334C78
:103E5000305820544553540D0A00000000002440FF
:103E600069203D2025642C2064697374616E63654C
:103E7000203D2025640D0A000008014070B50E4663
:103E800088B0054690F83041C0220121FEF73CFC85
:103E9000002823D169462846FEF7F1F800281DD1F5
:103EA0000122FF212846FEF72FFC002816D13246BA
:103EB000B6212846FEF722F900280FD10022FF2163
:103EC0002846FEF721FC002808D122460121284679
:103ED000FEF71AFC002801D185F8304108B070BD0A
:103EE00010B500201870052913D2DFE801F0030691
:103EF000090C0F00C2F3001109E0C2F3C00106E093
:103F0000C2F3800103E0C2F3801100E0D10919700F
:103F100010BD6FF0030010BD06230A46B021FEF766
:103F20001CBCF0B587B01646054661B101290AD020
:103F3000022908D0032922D004293ED06FF00304BF
:103F400007B02046F0BD05AA0021FEF737F80400AF
:103F5000F6D19DF8142031462846FEF791FD80B237
:103F6000B0F5807F01D9FF2201E0401EC2B2A5F862
:103F7000D82046212846FEF7C7FB0446E0E705AAFD
:103F80000021FEF71BF804469DF814203146284610
:103F9000FEF776FD80B2FEF7C4FDADF808000246DC
:103FA000A5F8D800002CCBD151212846FEF7C7FB3D
:103FB0000400C5D1C5F8E460C2E703A9FDF7B6FF68
:103FC0009DF80F00002798B105AA00212846FDF7AB
:103FD000F5FF0400B4D102AA51212846FEF78EF85D
:103FE0000446BDF80800FEF76DFD87B2002CA7D18E
:103FF00005AA01212846FDF7E1FF0400A0D19DF8A4
:10400000142031462846FEF73BFD3844FEF789FD73
:10401000024671212846FEF792FB040090D1C5F8B4
:10402000DC608DE721F00042A2F16052B2F5801F02
:1040300001F0004328BFD2F17F6C0BD95FEA001C6E
:1040400043EAC20242EB507018BF704728BF20F00D
:1040500001007047B2F5801FBCBF184670474FEA99
:10406000410C1CF5001F02D2084600F042BA70B5A0
:1040700000F079F900000089FFF7F6BF4FF000402B
:10408000A0F58000704700002DE9C04130B4DFF892
:10409000A0C23CEA111418BF3CEA131400F0EC80F3
:1040A00081EA03051CEA111444EAD57418BF1CEA1E
:1040B000131500F0C780A4EB05044FF0004545EA56
:1040C000C12145EAC32341EA505143EA525304F166
:1040D0007F74994204F500344FEAC0204FEAC222AF
:1040E00008BF904200F09C804FEA13650FF2401623
:1040F000765D4FEA134506FB05F7C7F1807706FBAF
:1041000007F74FEAD737A7FB03687642C8F5803830
:10411000A7FB06CE38BFA8F1010807FB08E64FF061
:10412000000EA6FB028CE6FB03CEDCF1000CCEF108
:10413000004E38BFAEF1010EA6FB0C584FF0000741
:104140004FF00005E6FB0E87A1FB08C6A0FB07CEDB
:1041500016EB0E0645F10005E1FB076515F1E04E93
:104160007EBFA4F580345FEA46066D4116F18007F4
:1041700045F100054FEA17274FEA066647EA05674B
:10418000A6F1DE46B6F1805F4FEA15251FD9384605
:1041900024F0010C05EBC471BCF1FE6F01EB0C11B6
:1041A00002D8F0BCBDE8008124425CBF01F5801E4E
:1041B0009EEAC47F02D4F0BCBDE80081244238D41A
:1041C000F0BCA1F1C041BDE8004100F01AB94FEACE
:1041D000D22242EA43524FEAD323A7FB02864FEA98
:1041E000D02040EA415007FB03661EEA0E0F4FEA5B
:1041F000D12105FB026658BFA6EB0056B6EB005670
:104200004FEA520E4EEAC37E18EB0E0E56EB530EDB
:10421000BDD518EB02085E417F1C55F10005B6E7DD
:104220004FF480154FF000074FF000064FF00008E4
:10423000ADE7F0BC4FF0000001F1C04101F00041DA
:10424000BDE8008111EA0C1F0CEA131500D00CE048
:1042500013EA0C1F00F025804FF00000F0BC81EA4B
:10426000030101F00041BDE80081F0BCBDE8004160
:1042700081EA030100F0C5B8F0BCBDE8004170B5AB
:1042800000F071F8097EFC3E00F007B881EA0301F6
:104290004FF0000001F00041704781EA030100F097
:1042A000B0B8F0BCBDE800414FF0000021497047B4
:1042B000FFFDFBF9F7F5F4F2F0EEEDEBE9E8E6E4EB
:1042C000E3E1E0DEDDDBDAD8D7D5D4D3D1D0CFCD72
:1042D000CCCBCAC8C7C6C5C4C2C1C0BFBEBDBCBBAB
:1042E000BAB9B8B7B6B5B4B3B2B1B0AFAEADACABA6
:1042F000AAA9A8A8A7A6A5A4A3A3A2A1A09F9F9E80
:104300009D9C9C9B9A999998979796959594939331
:10431000929191908F8F8E8E8D8C8C8B8B8A8989C8
:10432000888887878685858484838382828181804B
:104330000000FF070000F87F10F0004248BF404235
:10434000B0FA80F310FA03F10AD0C3F11D0303F5AC
:1043500080634FEA415002EB035202EBD1217047D8
:104360004FF0000070470EF1020E2EF0030E5EF8C3
:10437000046B364205D4012A43EB030515F5001FF3
:1043800012D8012841EB010C1CF5001F0CD80ED1EE
:104390004FEAD17C15F5001F0CEB4C0C0CF1020C14
:1043A00008BF4CEBD37C04E04FF0080C01E04FEA6F
:1043B000D37C0CEB4C0526FA05F606F00706B6F1A1
:1043C000040C06D20EEB860CBDE870404CF0010CDC
:1043D0006047DFE80CF0090B02024FF000414FF09C
:1043E0000000A1F5002170BD19461046012851EBCF
:1043F000010418BFD4F5001484BF002001F000416F
:1044000070BD0808A0F500114FEA310170470000A7
:1044100043004FEAD30C4FEA3C0C43401FBF400718
:104420000CF1605113F0FE4F70471CF0006F03D188
:1044300000200CF0004170470CF0004343EA50703C
:1044400010B540EACC0000F00EF800BF000000926A
:104450004FEA0001FFF7D5BF4FF000414FF00000D9
:10446000A1F5002170470EF1020E2EF0030E5EF84A
:10447000044B244204D44FEA4102B2F17F4F11D8D9
:104480004FEA4003B3F17F4F0CD80ED14FEAD07CF6
:10449000B2F17F4F0CEB4C0C0CF1020C08BF4CEB53
:1044A000D17C04E04FF0080C01E04FEAD17C0CEB2A
:1044B0004C0324FA03F404F00704B4F1040C06D20C
:1044C0000EEB840CBDE810404CF0010C6047DFE8B7
:1044D0000CF0070802024FF00040A0F5800010BD6C
:1044E0000846420018BFD2F1807288BF00F0004039
:1044F00010BDFF2141EAD050C00570470000000008
:104500000000000001020304060708090000000083
:10451000010203043445000800000020DC02000012
:1045200028010008CC470008DC0200206C080000CD
:104530008C01000812000112010453100001100741
:1045400024F40001FF0113301501FF0001090001EF
:1045500010000111000124010125FF01751B200934
:104560004E2C014800013020212036300901540032
:10457000013104013203014083014625016000013D
:1045800027000150060151000152960156080157BB
:10459000300161000162000164000165000166A054
:1045A00045300B22320147140149FF014A692009B5
:1045B0007A0A017B0001782160201B23340142002C
:1045C0000144FF014526014605014040010E060158
:1045D000201A0143402A200634030135448711750F
:1045E00020094B09014C05014D0442301D440001D6
:1045F0004520014708014828016700017004017146
:10460000010172FE0176000177B7230D01692006D2
:1046100080010101F8C6128EE441123503411B519D
:10462000F9106701014F0201FF0E0100030101842F
:1046300001020A0103030104080105C80106030180
:10464000078D0108080109C6010A01010B02010CCE
:1046500000010DD5010E18010F1201100101118288
:104660000112000113D501141801151301160301DD
:10467000178601180A011909011A08011BC2011C39
:1046800003011D8F011E0A011FD5143101012102F2
:104690000122000123D50124180125220126010150
:1046A00027820128000129D5012A18012B0B012C92
:1046B00028012D78012E28012F9101306B34380B01
:1046C00001320001330B0134000135A10136000134
:1046D00037A0013800013904013A28013B30013C80
:1046E0000C013D04013E0F013F7901402801411EAC
:1046F00001422F0143872024080B01460001470B8C
:10470000BF2749A77A24064BA6014C0041124EF35D
:1047100015B6242F0001518001520901530801549C
:104720000101550001560F0157790158090159053A
:10473000015A00015B60015C05015DD1015E0C0165
:104740005F3CEC142C61D001620B0163030164280F
:1047500001651001662A01673901680B01690201D0
:104760006A28016B10016C2A016D61016E0C016FEA
:104770009534110F01717901720001730B017400FE
:1047800001750B9E140DA10178000179A0017A003A
:10479000017BCB441F0401791D017B2701960E018B
:1047A00097FE0198030199EF019A02019B4401735E
:1047B000070170A425B949AF120A0452050C21085B
:0C47C000280968030020C8040020CF0076
:04000005080000ED02
:00000001FF
