:020000040800F2
:10000000A807002089010008891400088D12000843
:1000100085140008910200080D1A00080000000075
:100020000000000000000000000000009916000819
:10003000950200080000000069160008CD160008AF
:10004000A3010008A3010008A3010008A301000800
:10005000A3010008A3010008A3010008A3010008F0
:10006000A3010008A3010008A3010008A3010008E0
:10007000A3010008A3010008A3010008A3010008D0
:10008000A3010008A3010008A3010008A3010008C0
:10009000A3010008A3010008A3010008A3010008B0
:1000A000A3010008A3010008A3010008A3010008A0
:1000B000A301000835170008A3010008A3010008E8
:1000C000A3010008A3010008A3010008A301000880
:1000D000A3010008A3010008A3010008A301000870
:1000E000A3010008A3010008A301000800F002F822
:1000F00000F03AF80AA090E8000C82448344AAF188
:100100000107DA4501D100F02FF8AFF2090EBAE885
:100110000F0013F0010F18BFFB1A43F0010318473B
:100120006C1F00008C1F0000103A24BF78C878C1F3
:10013000FAD8520724BF30C830C144BF04680C60ED
:10014000704700000023002400250026103A28BF35
:1001500078C1FBD8520728BF30C148BF0B60704739
:100160001FB51FBD10B510BD00F058F81146FFF7C0
:10017000F7FF01F087FC00F076F803B4FFF7F2FF19
:1001800003BC00F07DF8000009488047094800479B
:10019000FEE7FEE7FEE7FEE7FEE7FEE7FEE7FEE737
:1001A000FEE7FEE704480549054A064B7047000094
:1001B00031170008ED000008A8010020A807002062
:1001C000A8030020A80300204FF0000200B513464A
:1001D00094469646203922BFA0E80C50A0E80C5067
:1001E000B1F12001BFF4F7AF090728BFA0E80C5018
:1001F00048BF0CC05DF804EB890028BF40F8042B11
:1002000008BF704748BF20F8022B11F0804F18BF7D
:1002100000F8012B7047704770477047754600F033
:100220002BF8AE4605006946534620F00700854688
:1002300018B020B5FFF7B6FFBDE820404FF000062C
:100240004FF000074FF000084FF0000BAC46ACE851
:10025000C009ACE8C009ACE8C009ACE8C00921F0AD
:1002600007018D46704710B50446AFF30080204665
:10027000BDE81040FFF781BF00487047180000201C
:1002800001491820ABBEFEE72600020070470000BF
:10029000FEE7000070470000EFF3108072B600BF69
:1002A000FEE70000B0B5044600F01CF9054640F238
:1002B0001000C2F200000078611C18BF044400BFA7
:1002C00000F010F9401BA042FAD3B0BD2DE9F04F69
:1002D00084B00E680290002E00F0018140F20047C9
:1002E00041F2004202984FF6FF7EC4F20107C4F2C9
:1002F0000102042300240125C1F2100E4FF0000A70
:100300004FF00009904208BF032300930AE000BFAA
:1003100001250E680AF1010A36FA0AF204F1040412
:1003200000F0DD8005FA0AFB16EA0B08F1D04A68F6
:10033000724511DC122A54D80298DFE802F0350A1F
:100340004347535353535353535353535353534AA2
:100350004E00D1F80C9045E04FF6FF73C1F2210337
:100360009A4210DC0023C1F2110302989A421BD07A
:100370000023C1F212039A4216D00023C1F22103D6
:100380009A4211D02EE00023C1F2220302989A4231
:100390000AD00023C1F231039A4205D00023C1F2F2
:1003A00032039A421ED100BF8A6842B1012A14BFAB
:1003B000C0F814B0C0F810B04FF0080912E04FF0C8
:1003C00004090FE0CA6802F108090BE04FF00009C8
:1003D00008E0CA6802F1040904E0CA6802F10C09E5
:1003E00000E0029822460346B8F5807F24BF203AF9
:1003F00004331D684FF00F0C0CFA02F6B54309FAEE
:1004000002F22A431A60CA79D2067FF581AF41F21F
:100410001803CDF80490C4F202031A68F34642F0C0
:1004200001021A601A684FEA9A0E02F00102039262
:10043000039AA7F57E72B94652F82E3004F00C07E5
:1004400040F600060CFA07F5C4F20106B04223EAB2
:10045000050C10D040F60043C4F2010398420CD0C2
:1004600041F20003C4F201039842009B4FF00105E2
:1004700008BF022303E0002300E001230125BB4065
:1004800043EA0C0342F82E304E684F46F203D9F887
:10049000002054BF22EA080242EA0802DDF8049074
:1004A0003A607A68B30354BF22EA080242EA0802BB
:1004B0007A60F302BA6854BF22EA080242EA0802EC
:1004C000B30240F20C43BA60C4F20103DE461A687C
:1004D00054BF22EA080242EA08021A6019E704B08F
:1004E000BDE8F08F40F2A010C2F200000068704733
:1004F00040F2100040F2A011C2F20000C2F200016E
:1005000000780A68104408607047000080B542F225
:100510000000C4F20200016841F0100101600320F4
:1005200000F05EF80F2000F005F800F02BF8002036
:1005300080BD0000B0B540F21002C2F2000240F2ED
:100540000C011278C2F200014FF47A730968B3FB10
:10055000F2F20446B1FBF2F1084600F0B5FA0F2CB6
:100560004FF001050CD858B94FF0FF30214600225A
:10057000002500F025F840F21400C2F200000460EB
:100580002846B0BD82B041F21800C4F202000168F2
:1005900041F001010160016801F00101019101993F
:1005A000416841F080514160406800F08050009007
:1005B000009802B07047000080B501F029FA80BDB4
:1005C00070B514460D46064601F032FA2946224619
:1005D00000F05CFF0146304601F032FA70BD0000C9
:1005E00080B501F03FFA80BD2DE9F04381B00028CD
:1005F00000F0898042F20008C4F202080446D8F8EC
:1006000000000D4600F0070088420CD2D8F8000028
:1006100020F007002843C8F80000D8F8000000F0D8
:100620000700A8426FD1206841F204098107C4F293
:10063000020917D5410705D5D9F8001041F4E0614A
:10064000C9F80010010705D5D9F8001041F4605130
:10065000C9F80010D9F80010A26821F0F001114388
:10066000C9F80010C00745D1D8F8000000F0070015
:10067000A8420CD9D8F8000020F007002843C8F899
:100680000000D8F8000000F00700A8423BD1206825
:10069000410707D5D9F80010E26821F4E061114361
:1006A000C9F80010000708D5D9F80000216920F426
:1006B000605040EAC100C9F8000000F04FF8D9F8D6
:1006C000001042F27A02C1F30311C0F60002515C3D
:1006D00040F20C0220FA01F140F21400C2F20000D4
:1006E0000068C2F200021160FFF724FF002001B091
:1006F000BDE8F0836068022809D0012829D159F8A3
:10070000041C890307D4012001B0BDE8F08359F827
:10071000041C8901F7D5D9F8001021F00301084322
:10072000C9F80000FFF7DEFE064641F2883700BF39
:10073000D9F80000616800F00C00B0EB810F93D095
:10074000FFF7D0FE801BB842F2D9032001B0BDE80C
:10075000F08359F8041C8907D5D5DCE741F2040C75
:10076000C4F2020CDCF8003003F00C00082841F25F
:100770000020C0F27A0018BF7047C3F383420AA179
:100780008A5CD90305D440F60010C0F23D00504306
:100790007047DCF8001008A3C1F34041595C504396
:1007A000B0FBF1F0704700BF02030405060708091B
:1007B0000A0B0C0D0E0F1010010200002DE9F04184
:1007C00082B0002800F0C4800446007841F20006A0
:1007D000C007C4F2020643D0706800F00C00042881
:1007E00017D0706800F00C00082802D17068C003B0
:1007F0000FD465682DB1B5F5A02F10D0B5F5803FA9
:1008000011D0306820F480303060306820F48020CF
:100810000CE03068800323D5606808BB98E030683E
:1008200040F480203060306840F480303060FFF762
:1008300059FE002D054610D03068800310D4FFF714
:1008400051FE401B6428F7D904E100BFFFF74AFEC0
:10085000401B64284FF0030077D830688003F5D43C
:100860002078800718D5706810F00C0F07D07068DA
:1008700000F00C00082826D17068C00323D430682B
:10088000800702D52069012862D13068616920F0B3
:10089000F80040EAC1003060207800073DD5A0692B
:1008A00038B30020C4F242200121C0F88014FFF7C1
:1008B00019FE0546706A80072DD4FFF713FE401B12
:1008C0000228F7D9C6E02069002840F20000C4F2EF
:1008D000422000F0968001210160FFF703FE0546EB
:1008E00030688007D1D4FFF7FDFD401B0228F7D9FF
:1008F000B0E00020C4F242200021C0F88014FFF7CD
:10090000F1FD0546706A800707D5FFF7EBFD401B38
:100910000228F7D99EE000F0A9FE207840071BD4FA
:10092000E5698DB1706800F00C00082847D1012DF1
:100930000ED07068216A00F480328A4208D1616A60
:1009400000F47010884203D1002002B0BDE8F081AD
:10095000012002B0BDE8F081F06910F0805808D1A4
:10096000F06940F08050F061F06900F08050019033
:10097000019847F20007C4F200073868C00510D498
:10098000386840F480703860FFF7ACFD054600BF62
:100990003868C00505D4FFF7A5FD401B6428F7D9CA
:1009A00058E0E5681DB1052D3CD0012D3ED0306AE0
:1009B00020F001003062306A20F0040039E00027A6
:1009C000C4F2422700203866FFF78CFD022D054651
:1009D0000CD100BF3068800154D5FFF783FD401B68
:1009E00002284FF00300F5D9AFE700BF306880015F
:1009F000AAD5FFF777FD401B02284FF00300F5D979
:100A0000A3E700210160FFF76DFD05463068800710
:100A10007FF542AFFFF766FD401B02284FF0030051
:100A2000F4D992E7306A40F004003062306A40F056
:100A300001003062FFF756FD002D054641F2883770
:100A400014D000BF306A800713D4FFF74BFD401B62
:100A5000B842F7D9032002B0BDE8F081FFF742FDAC
:100A6000401BB8424FF003003FF66FAF306A80077B
:100A7000F4D4B8F1000F7FF453AFF06920F0805048
:100A8000F0614DE7206AB0F5803F05D17168A2683A
:100A900021F40031114371607168626A21F47411AC
:100AA00010430843706001203866FFF71BFD0446C1
:100AB000306880013FF548AFFFF714FD001B0228A6
:100AC0004FF00300F4D940E780B500F0E7FD80BDAA
:100AD000704700007047000010B590F83C20012AD4
:100AE0004FF0020231D0012380F83C3080F83D20E5
:100AF0000268D2F804E0D2F808C00C682EF0700347
:100B0000234340F2FF74C4F20004A242536005DCA8
:100B1000B2F1804F0ED040F2004307E042F60043AE
:100B2000C4F201039A4205D040F60003C4F2000368
:100B30009A4204D149682CF0800319439160012145
:100B4000002280F83D1080F83C20104610BD0000C7
:100B5000002804BF0120704710B5044690F83D00FE
:100B600028B9002084F83C00204600F01FF802203D
:100B700084F83D002068211D00F0F4FD012084F878
:100B8000460084F83E0084F83F0084F8400084F872
:100B9000410084F8420084F8430084F8440084F85B
:100BA000450084F83D00002010BD000080B582B0F3
:100BB000006840F20041C4F20001884211D0B0F157
:100BC000804F23D141F21C00C4F20200016841F0C1
:100BD00001010160006800F001000190019802B07D
:100BE00080BD41F21C00C4F202000168002241F005
:100BF000020101600068002100F0020000900098EE
:100C00001D20FFF7DDFC1D20FFF7D6FC02B080BDE4
:100C100090F83D1001291CBF01207047022180F887
:100C20003D10006840F2FF72C168C4F200029042B9
:100C300041F00101C16005DCB0F1804F0ED040F2FF
:100C4000004107E042F60041C4F20101884205D0AC
:100C500040F60001C4F20001884206D1816801F02B
:100C60000701062904BF00207047016841F0010117
:100C7000016000207047000010B5044690F83C0069
:100C800001284FF0020008BF10BD012284F83C206B
:100C900084F83D0020684FF6777382689A4382603B
:100CA0000A683F2A14DD5F2A18DD602A28D0B2F5D1
:100CB000005F2DD0702A40D1D1E9012CCB6861466C
:100CC00000F0A8FD2068816841F07701816034E080
:100CD0001F2A0FDC92B1102A10D02EE0402A23D018
:100CE000502A2AD14B68CA68194600F06BFE20686A
:100CF000502120E0202A01D0302A1ED111461AE0CE
:100D00004B68CA68194600F06FFE2068602112E047
:100D1000D1E9012CCB68614600F07CFD2068816838
:100D200041F48041816008E04B68CA68194600F0D0
:100D300049FE2068402100F079FD012084F83D0043
:100D4000002084F83C0010BD002804BF012070473B
:100D50002DE9F047044690F83D000D4628B90020E3
:100D600084F83C00204600F049F8022084F83D0059
:100D7000206844F20702816891438160211D00F0E0
:100D8000F1FC20684FF6FF7881688269D0F820C0B6
:100D9000D5E9003ED5E9026A43EA0109AB6922EAD6
:100DA000080246EA03234FF6FC46B343D5E907673A
:100DB00042EA0A0229691A4342EA062242EA01117A
:100DC0002CF022026B6942EA0E0241EA073142EA44
:100DD0000312C0F8089081610262012084F8460085
:100DE00084F83E0084F83F0084F8420084F8430011
:100DF00084F83D000020BDE8F087000080B586B093
:100E00000022014640F600000592CDE90322C4F21B
:100E10000100096800F510539942029201D006B012
:100E200080BD41F21801C4F202010B6843F4006373
:100E30000B600B6803F400630193019B0B6843F0A4
:100E400004030B60096801F00401019101994FF45A
:100E50004071CDE902120121049102A9FFF736FA8F
:100E600006B080BD10B5044690F83E0094F83F20CF
:100E700094F8423094F843C0042907D089B9012876
:100E80004FF0010008BF012B23D010BD012A4FF005
:100E9000010008BFBCF1010FF7D1022084F83F0028
:100EA00012E001284FF0010008BF012AEDD1012B0B
:100EB000EBD1BCF1010F18BF10BD022084F83E0039
:100EC00084F83F0084F8420084F84300042907D1E5
:100ED0000EE0022084F83E0084F84200042907D086
:100EE00009B9002105E020680021012200F080FC02
:100EF00004212068012200F07BFC2068016841F099
:100F000001010160002010BD7047000010B50446CB
:100F100000680169890744BFC1685FEA817138D4FC
:100F200020680169490744BFC1685FEA41713CD448
:100F300020680169090744BFC1685FEA017141D4B3
:100F400020680169C90644BFC1685FEAC16145D430
:100F500020680169C9071CBFC1685FEAC1714AD135
:100F600020680169090644BFC1685FEA016149D48C
:100F700020680169490644BFC1685FEA416148D4FD
:100F800020680169890644BFC1685FEA816147D46E
:100F900010BD6FF002010161012121778069800796
:100FA00045D02046FFF7B0FF47E06FF00401016134
:100FB00002212177806910F4407F41D02046FFF75D
:100FC000A3FF43E06FF00801016104212177C069AC
:100FD00080073ED02046FFF797FF40E06FF01001FA
:100FE000016108212177C06910F4407F3AD0204682
:100FF000FFF78AFF3CE06FF001010161204600F03D
:1010000041F9ADE76FF0800101612046FFF760FD17
:10101000AEE76FF040010161204600F035F9AFE71F
:101020006FF0200101612046FFF754FD10BD2046FE
:1010300000F04CF8204600F0C7F8002020776FE75A
:10104000204600F043F8204600F0BEF8002020774C
:101050006EE7204600F03AF8204600F0B5F8002090
:1010600020776DE7204600F031F8204600F0ACF81C
:10107000002020776CE7000080B586B00068B0F1F2
:10108000804F4FF00000CDE90400CDE9020001D00F
:1010900006B080BD41F21800C4F20200016841F0C0
:1010A00004010160006802A900F0040001900198A9
:1010B0000320029002200390059040F60000C4F245
:1010C0000100FFF703F906B080BD00007047000083
:1010D000B0B5044690F83C00012804BF0220B0BD22
:1010E0004FEAB2000D460121032884F83C1036D89F
:1010F000DFE800F0020A12222068294600F09EFB79
:10110000206850F8181F0EE02068294600F0C8FB40
:10111000206850F8181F16E02068294600F0F6FBFA
:10112000206850F81C1F41F008010160016821F09F
:101130000401016029690FE02068294600F01CFCC9
:10114000206850F81C1F41F400610160016821F41F
:101150008061016029690902026811430160002071
:1011600084F83C00B0BD0000002804BF0120704797
:1011700010B5044690F83D0028B9002084F83C00E2
:10118000204600F01FF8022084F83D002068211D51
:1011900000F0E8FA012084F8460084F83E0084F864
:1011A0003F0084F8400084F8410084F8420084F84D
:1011B000430084F8440084F8450084F83D00002092
:1011C00010BD00007047000070470000B0B5044635
:1011D00041B1082909D0042914BF04F1410004F1E8
:1011E0003F0004E004F13E0001E004F1400000781B
:1011F00001281CBF0120B0BD022041B1082909D03F
:10120000042914BF84F8410084F83F0004E084F806
:101210003E0001E084F84000206842F64445012287
:10122000C4F2010500F0E4FA2068A5F14401884207
:1012300003D1296841F40041296040F2FF71C4F2F2
:101240000001884205DCB0F1804F0ED040F2004131
:1012500007E042F60041C4F20101884205D040F6A1
:101260000001C4F20001884206D1816801F0070143
:10127000062904BF0020B0BD016841F001010160F2
:101280000020B0BD7047000070470000FEE700007E
:1012900081B041F21800C4F20200016841F004017B
:1012A0000160006800F004000090009801B07047F1
:1012B000B0B58CB003AC20462421FEF785FF40F288
:1012C000C80042F600410025C2F20000C4F201014C
:1012D000C0E900150321CDE9031501214FF6FF7286
:1012E000CDE90515CDE90755CDE909152146CDE92B
:1012F0000055C0E90252C0E9045585610B95FFF71E
:1013000023FD002818BFFEF7C7FF40F2C800C2F255
:1013100000006946CDE90055FFF7DEFB002818BF45
:10132000FEF7BAFF0CB0B0BD10B58EB040F2101091
:101330000021C2F200004FF08042472344F61F64B0
:101340000D91CDE90B11CDE90911CDE90711CDE9D9
:101350000511CDE90311CDE90111C0E90023C0E970
:10136000021401618161FFF7F3FB002818BFFEF74B
:1013700093FF4FF480500A9040F21010C2F2000028
:101380000AA9FFF779FC002818BFFEF785FF40F295
:101390001010C2F20000FFF7E7FE002818BFFEF7AA
:1013A0007BFF40F210100024C2F2000008A9CDE932
:1013B0000844FFF791FB002818BFFEF76DFF60207F
:1013C000CDE9010440F21010C2F2000001A9002290
:1013D00003940594FFF77CFE002818BFFEF75CFF1E
:1013E00040F21010C2F2000001A90422FFF770FEC3
:1013F000002818BFFEF750FF40F21010C2F20000A4
:10140000FFF73AFE0EB010BD80B586B040F258101E
:1014100040F200420021C2F20000C4F20002472361
:1014200042F20F7CCDE90411CDE90211CDE90011A2
:10143000C0E90023C0E9021C01618161FFF788FB5C
:10144000002818BFFEF728FF4FF48050029040F2AA
:101450005810C2F2000002A9FFF70EFC002818BFC6
:10146000FEF71AFF0020CDE9000040F25810C2F24A
:1014700000006946FFF730FB002818BFFEF70CFF9D
:1014800006B080BDFEE70000FEE7000000F00700A8
:1014900080F00703042B28BF04234FF0FF3C0338E0
:1014A0000CFA03F338BF0020994381400CFA00F096
:1014B00022EA000008437047002804BF002070475C
:1014C0002DE9F0470446C06B236CC4E910031046B5
:1014D000C4E9062100F05CFD217805460129E0639E
:1014E0002DD000296BD104F1040999E84202676903
:1014F000284600F081FC804660622846314600F0B4
:101500007BFCA16A02460846114600F00DFBA06272
:101510000646D4E90C02216C60632846A26300F001
:1015200037FD4946206300F067FC0546E06230461F
:10153000394600F069FB002844D0A7624BE0266CD6
:101540002846314600F024FD04F10409014699E8DB
:101550008102D4F8108000F04FFC82466062284679
:10156000394600F049FCA0620746D4E90C01C4E901
:101570000D013046314600F0D7FA0146284600F00A
:1015800007FD616C00F0D0FA4946206300F034FC9E
:101590000546E0625046394600F0C6FA294600F09A
:1015A000C3FA216A02460846114600F0BDFA4146D8
:1015B0000546206200F036FB00BBC4F82080206A9C
:1015C000BDE8F08787F000473046394600F023FB3E
:1015D000002808BFA762A16A2669404600F0A4FA65
:1015E0000146284600F0A0FA31460546206200F088
:1015F00019FB30B92662206ABDE8F08788F0004602
:1016000001E086F000462846314600F004FB002841
:1016100008BF2662206ABDE8F0870000002818BFD6
:10162000002A00D17047D2F800C00170C0F804C091
:10163000D2F804C0C0F808C092680C30DDF800C0D1
:1016400080E80C1070470000002801DD002105E053
:10165000B0F1FF3FC8BF7047414200203422C4F2BE
:1016600000021160506070477047000081B040F286
:101670000C00C2F20000006844F6D351C1F26201CE
:10168000A0FB0101480A009000BF0098411E0028FD
:101690000091F9D101B0704770470000B0B5013832
:1016A0000024B4EB106F1CBF0120B0BD4EF210053A
:1016B000CEF2000568604FF0FF300F2100F0C0F956
:1016C0000720AC6028602046B0BD000080B5FEF762
:1016D0000FFF80BD70B590B006AC20462821FEF704
:1016E00073FD01200A901020002502260B904FF474
:1016F00060100696CDE90D650F9020460595CDE961
:101700000355CDE90155FFF759F878B90F20CDE918
:1017100001064FF480600395CDE9040501A802217C
:10172000FEF762FF002804BF10B070BDFEF7B4FDE5
:101730007047000010B540F25810C2F20000FFF7E9
:10174000E5FB42F62444C4F20104206800B200F034
:10175000D3FA40F2C401C2F2000108600020206008
:1017600010BD000010B540F2FF7E0368C4F2000E09
:1017700042F6004C7045C4F2010C05DCB0F1804F1C
:101780000AD040F2004203E0604505D040F6000276
:10179000C4F20002904203D14A6823F0700313435D
:1017A000704505DCB0F1804F0AD040F2004203E002
:1017B000604505D040F60002C4F20002904203D119
:1017C000CA6823F44073134323F080024B69D1F8B5
:1017D00000E08C681A4360450260C462C0F828E0EB
:1017E00002D10969CCF830100121416110BD00001F
:1017F00080B501F01F014FF0010CD0F820E00CFA89
:1018000001F32EEA03030362036A02FA01F11943AA
:10181000016280BDD0F808C011432CF47F4C41EA2E
:10182000032141EA0C01816070470000826822F0C8
:101830007002114341F0070181607047B0B5026A40
:1018400042F6004422F001020262036A4268D0F8C4
:1018500018C08D68D1F800E023F00203C4F201043F
:10186000A04243EA05030BD0A04211D02CF073052F
:1018700045EA0E0542608561496841630362B0BD77
:10188000CD6823F00C0325F004052B43A042EDD1D5
:10189000D1E9054522F4407222432A43E6E70000DD
:1018A00070B5026A42F6004422F010020262036A36
:1018B0004268D0F818C08D68D1F800E023F020030A
:1018C000C4F20104A04243EA05130BD0A04213D096
:1018D0002CF4E64646EA0E2642608661496881633A
:1018E000036270BDCD686FF0400623F0C00306EAC6
:1018F00005152B43A042EBD1D1E9054522F4406206
:1019000042EA840242EA8502E2E7000070B5026A18
:1019100042F6004422F480720262036A4268D0F800
:101920001CC08D68D1F800E023F40073C4F20104F8
:10193000A04243EA05230BD0A04213D02CF073063B
:1019400046EA0E064260C6614968C163036270BD23
:10195000CD6840F2FF462D0223F44063B5432B438C
:10196000A042EBD1D1E9054522F4405242EA0412EB
:1019700042EA0512E2E70000B0B5026A42F600450D
:1019800022F480520262026A4368D0F81CE00C68BC
:10199000D1F808C0C4F20105A84204D14D6923F46E
:1019A000804343EA85132EF4E64545EA0425436067
:1019B000C56122F40052496842EA0C3201640262B5
:1019C000B0BD0000D0F820C0036A23F00103036219
:1019D000836923F0F00343EA02122CF00A0319434F
:1019E0008261016270470000036A23F01003036202
:1019F0008369D0F820C023F4704343EA02322CF00C
:101A0000A00343EA0111826101627047FEE7000012
:101A1000002848BF704700F01F01012202FA01F1BF
:101A20004EF200124009CEF2000242F82010704738
:101A30004EF60C50CEF200000068C0F30220704752
:101A40004EF6145300F00F02CEF2000309011A44BF
:101A500000F16043B0F1FF3FC8BF03F5644211706D
:101A6000704700004EF60C51CEF200010A684FF6A6
:101A7000FF031A4060F30A2242F0806040F0FD70DC
:101A80000860704782B0FEF741FDFFF723FEFFF7C5
:101A9000FFFBFFF70DFCFFF747FCFFF7B5FC40F23B
:101AA000C800C2F200003C21FFF7DCF940F25810F8
:101AB000C2F20000FFF7ACF840F21014C2F20004CA
:101AC00020460021FFF782FB20460421FFF77EFB22
:101AD00040F2780444F20006C2F2000440F2000230
:101AE00043F60063C4F29C56C2F20002C4F29C6347
:101AF000204600210096FFF791FD40F2C40540F218
:101B0000C006C2F20005C2F2000600BF32682968B2
:101B10002046FFF7D1FC206A00F0D2F8FFF794FDD1
:101B20000120FEF7BFFBF1E790EA010F48BF81F00B
:101B3000004100F13482421A3CBF801A89184FEAF2
:101B4000D052A2EBD1534FF07F4C1CEA410F18BF8B
:101B50009CEA026F00F03B804FF0004C4CEA002002
:101B60004CEA012121FA03FC10EB0C0C1ED202F10D
:101B7000FF325FEA1C2040EBC25038BF70471CF0B8
:101B80007F0F4FEA400C18BFBCF17F4F38BF704742
:101B9000C3F12003994008BF20F00100BCF17F4F42
:101BA00038BF7047A0F1C04000F0EDB94FEA3C00EB
:101BB000000A40EBC25028BF1CF0FF0F4FEA400C58
:101BC000E6D018BFBCF17F4F38BF7047EAE79CEA08
:101BD000026F05D010EA5C0F08BF00F000407047AC
:101BE00010B500F08AF900BF64FBBE3E10B500F0EE
:101BF00033F80CBF0120002010BD10B500F02CF808
:101C000014BF0120002010BD10B500F08DF88CBF6E
:101C10000120002010BD10B500F086F82CBF012077
:101C2000002010BD10B500F0B3F894BF01200020D3
:101C300010BD10B500F0ACF834BF0120002010BD7D
:101C4000401058BFC0F14040491058BFC1F1404159
:101C50008142EFF30080704750EA010C00F11380DD
:101C60001CF5000F58BFBCF5000F01D48842704727
:101C700007D710F5000F58BF11F5000F15D4884293
:101C80007047894270471CF5000F04D5BCF5000F62
:101C9000F7D5814270474FF0807C1CEB400F38BF76
:101CA0001CEB410F01D28142704710B500F025F9BD
:101CB000922449004FF000504FF08051FFF7C0BF11
:101CC00041000B0ED3F19E0208D950F400034FEAF5
:101CD000032323FA02F048BF4042704710B500F0DA
:101CE0000CF900BF49922480002070476FF0004239
:101CF00082EA20007047000010F0004148BF4042D7
:101D0000B0FA80F310FA03F2C3F19D030BD051EA4D
:101D1000C35101EB1220530638BF704700F1010098
:101D200008BF20F00100704750EA010C00F1138059
:101D30001CF5000F58BFBCF5000F01D48842704756
:101D400007D710F5000F58BF11F5000F15D48842C2
:101D50007047894270471CF5000F04D5BCF5000F91
:101D6000F7D5814270474FF0807C1CEB400F38BFA5
:101D70001CEB410F01D28142704710B500F0BDF855
:101D8000922449004FF080504FF00051FFF758BFA8
:101D900050EA010C00F113801CF5000F58BFBCF590
:101DA000000F01D48842704707D710F5000F58BFC5
:101DB00011F5000F15D488427047894270471CF511
:101DC000000F04D5BCF5000FF7D5814270474FF0E6
:101DD000807C1CEB400F38BF1CEB410F01D28142CD
:101DE000704710B500F089F8922449004FF0005078
:101DF0004FF08051FFF724BF4FF47F0C1CEAD01244
:101E00001EBF1CEAD11392EA0C0F93EA0C0F00F0EC
:101E1000478090EA010F48BF42F480724FF0004CB7
:101E20004CEA00204CEA012102EB0302A0FB011363
:101E3000A2F50002002918BF43F001035B0028BF90
:101E40004FEA330342EB22425FEA132C4CEBC250C1
:101E50002EBFBCEB436FB2F57C0F70474FEA036CAB
:101E6000BCF1004F08BF20F00100B2F57C0F38BF75
:101E700070470BD582F0FF0212F5803FC8BF704754
:101E800000F1C040D8BF00F00040704700F5000CE2
:101E90005FEA4C0C48BF7047B0F1C04000F073B827
:101EA0000CEAD11390EA010F48BF42F480726245F8
:101EB00038BF634504D280EA010000F0004070475B
:101EC00010B500F01AF800BF8900013E00F007B815
:101ED00000F009B85FEA410C5FEA1C6C08D080EAA8
:101EE000010000F050B85FEA400C5FEA1C6CF6D1CC
:101EF0004FF00040A0F5800070470EF1020E2EF06A
:101F0000030E5EF8044B244204D44FEA4102B2F1BE
:101F10007F4F11D84FEA4003B3F17F4F0CD80ED159
:101F20004FEAD07C0CEB4C0C0CF1020CB2F17F4F61
:101F300008BF4CEBD17C04E04FF0080C01E04FEA05
:101F4000D17C0CEB4C0324FA03F404F00704B4F145
:101F5000040C06D20EEB840CBDE810404CF0010CD2
:101F60006047DFE80CF0070802024FF00040A0F5E0
:101F7000800010BD0846420018BFD2F1807288BFB1
:101F800000F0004010BDFF2141EAD050C00570476D
:101F900090EA010F48BF81F000413FF5CCAD421AF5
:101FA00004D882F00042A0EB020011444FEAD05264
:101FB000A2EBD1534FF07F4C1CEA410F18BF9CEAB3
:101FC000026F4AD04FF0004C4CEA00204CEA01214D
:101FD00021FA03FCB0EB0C0C0FD412F0FE0F36D03C
:101FE0005FEA4C001DD5001240EBC25038BF70476D
:101FF0001CF03F0F18BF70470BE05FEA1C20A2F1F6
:10200000010240EBC25038BF70471CF07F0F18BF71
:102010007047C3F12003994014BF401E20F0010017
:1020200070474FEA1223800808BF7047B0FA80FC5F
:10203000A2EB0C02CCF1280C60FA0CF093EA122F00
:1020400004BF00EBC25070474FEAC3707047130AD9
:102050005FEADC1008BF7047F6E79CEA026F04D025
:1020600010EA5C0F08BF0020704710B5FFF745FF6E
:1020700040DFF63E81F000407047000000000000A5
:10208000000001020304060708090000B020000850
:10209000000000201800000028010008C8200008E7
:1020A0001800002090070000440100080000000014
:1020B0000000C84200002042000000000024F4009C
:0820C000010000001000000007
:04000005080000ED02
:00000001FF
