:020000040800F2
:10000000A8040020050100081B1500084B14000877
:1000100019150008B1060008851700080000000047
:100020000000000000000000000000001F15000894
:10003000B3060008000000001D1500082115000887
:100040001F0100081F0100081F0100081F01000810
:100050001F0100081F0100081F0100081F01000800
:100060001F0100081F0100081F0100081F010008F0
:100070001F0100081F0100081F0100081F010008E0
:100080001F0100081F0100081F0100081F010008D0
:100090001F0100081F0100081F0100081F010008C0
:1000A0001F0100081F0100081F0100081F010008B0
:1000B000851500081F0100081F0100081F01000826
:1000C0001F0100081F0100081F0100081F01000890
:1000D0001F0100081F0100081F0100081F01000880
:1000E0001F0100081F0100081F010008DFF810D0E1
:1000F00000F04EFA0048004791200008AFF300805E
:10010000A80400200648804706480047FEE7FEE7AF
:10011000FEE7FEE7FEE7FEE7FEE7FEE7FEE7FEE7B7
:1001200083150008ED000008202A04DB203A21FA9C
:1001300002F00021704721FA02F3D040C2F1200200
:100140009140084319467047D2B201E000F8012BF4
:10015000491EFBD270470022F6E710B513460A4647
:1001600004461946FFF7F0FF204610BD00F000429C
:1001700030F000400AD0C10D01F56071C0F31600E7
:1001800042EA0151C208400711437047002001466E
:10019000704730B50B46014600202022012409E0BB
:1001A00021FA02F59D4205D303FA02F5491B04FA30
:1001B00002F52844151EA2F10102F1DC30BD2DE943
:1001C000F05F0546002092469B46884606468146DB
:1001D00040241BE02846414647462246FFF7A4FF3D
:1001E00053465A46C01A914110D31146184622462A
:1001F00000F0E0F92D1A67EB01084F462246012076
:10020000002100F0D7F917EB00094E41201EA4F1A0
:100210000104DFDC484631462A464346BDE8F09FEC
:100220002DE9FE4F804681EA0300C00F0C46009086
:1002300021F0004123F00045B8EB0200A94105D2AE
:100240004046214690461C460B46024623F000409D
:10025000104347D0270DC7F30A00C3F30A51029099
:10026000401A019040286BDAC3F3130040F4801B5E
:100270000098924620B10023D2EB030A63EB0B0BEC
:1002800001985946C0F14002504600F093F90646E5
:100290000D4650465946019A00F09BF910EB0800B4
:1002A0006141002487EA115284EAE7731A4340D07F
:1002B000009A62B3019A012A4FEA075215DC001B2B
:1002C00061EB02014FF0004202EA0752CDE9004221
:1002D000001C41F5801132462B4600F09BF903B01B
:1002E000BDE8F08F40462146F9E7001B61EB0201B3
:1002F000001C41F5801300185B412018A2F500177F
:1003000047EB030140EAD570B6196D4111E06D0865
:100310004FEA360645EAC0754FEA0752001B61EB0B
:100320000201001C41F5801149084FEA3000001914
:10033000514132462B4603B0BDE8F04F00F05BB9A7
:100340000098012240000023D0EB020263EBE0732F
:10035000009821464FEAE074B8EB000061EB04011D
:10036000E9E783F000435BE781F0004158E72DE9BE
:10037000FE4F81EA030404F0004421F000410094A0
:100380004FF0000B23F0004350EA01045ED052EA24
:1003900003045BD0C3F30A54C1F30A552C44A4F2FE
:1003A000F3340194A0FB0254C1F3130141F4801112
:1003B000C3F3130343F4801301FB024400FB034E19
:1003C000840A970A44EA815447EA8357A4FB0768E2
:1003D00002958D0A05FB07854FEA932C04FB0C540C
:1003E0002705029D4FEA065847EA1637B5EB080580
:1003F0006EEB070C870E920E47EA811742EA8312D2
:10040000A7FB0201B6EB0B0164EB00042B0D43EAE2
:100410000C335E1844EB1C50DA465146E7FB0201F0
:10042000C5F313044FEA0B3343EA14534FEA043283
:10043000019C43EA0603A4F10C040294009CCDE95C
:1004400000B400F0E7F803B0BDE8F08F00200146EB
:10045000F9E72DE9F04D81EA030404F0004B21F0A7
:10046000004514464FF0000A23F0004150EA05020F
:1004700020D054EA01021DD0C5F30A570246C5F345
:100480001303C1F31300C1F30A5640F4801543F47B
:100490008013A7EB0608101BD64608F2FD3873EB55
:1004A000050002D308F1010801E092185B41B8F1A0
:1004B000000F03DA00200146BDE8F08D00204FF464
:1004C0008011064684460EE0171B73EB050705D323
:1004D000121B63EB050306434CEA010C49084FEA83
:1004E000300092185B4150EA0107EDD152EA030057
:1004F00012D082EA040083EA0501084305D0101BEC
:10050000AB4106D20122002306E000224FF0004357
:1005100002E06FF0010253101AEB06004CEB085199
:1005200010EB0A0041EB0B01BDE8F04D00F063B8A1
:10053000C1F30A52C1F3130140F2FF3341F48011B9
:100540009A4202DA00200146704740F233439A4251
:10055000A2F2334202DC5242FFF7E6BD00F02AB8B5
:1005600030B5041E71F1000404DB4FF0004440423A
:1005700064EB0101141E73F1000405DB1C464FF00F
:100580000043524263EB0403994208BF904230BDDE
:10059000064C074D06E0E06840F0010394E80700D0
:1005A00098471034AC42F6D3FFF7A4FDC8200008EA
:1005B000E8200008202A04DB203A00FA02F100209B
:1005C00070479140C2F1200320FA03F31943904091
:1005D0007047202A06DBCB17203A41FA02F043EAA3
:1005E000E07306E041FA02F3D040C2F120029140EC
:1005F00008431946704710B5141E73F1000408DA59
:10060000401C41F1000192185B411A4301D120F0D6
:10061000010010BD2DE9F04D92469B4611B1B1FA93
:1006200081F202E0B0FA80F220329046FFF7C2FF7A
:1006300004460F4640EA0A0041EA0B0153465A4677
:10064000084313D0114653EA010019D0C8F1400203
:100650005046FFF769FD05460E465046594642464C
:10066000FFF7A8FF084305D0012004E020463946E3
:10067000BDE8F08D0020054346EAE0762C43374381
:100680000A986305E40AA0EB08000022FD0A44EA88
:1006900047540A3002D500200146E9E70105101948
:1006A0006941DDE9084500196941BDE8F04DA2E75F
:1006B000FEE7704772B6FEE72DE9F84FDFF8B89114
:1006C000002409F1040A0AF1040B23460F270BF159
:1006D000040EC9E00125A5402A40AA427DD1674EFB
:1006E000D1F804C0ACEB0608B44532D014DCBCF140
:1006F000030F3AD009DCBCF1000F2AD0BCF1010F86
:100700001CD0BCF1020F31D11DE0BCF1110F17D08C
:10071000BCF1120F2AD119E0B8F5881F19D006DCF8
:10072000B8F5803F15D0B8F5801F1FD111E0B8F59E
:10073000001F0ED0B8F5041F18D10AE0CB6815E0F1
:10074000CB681B1D12E0CB6808330FE0CB680C337D
:100750000CE08B682BB1012B4FF0080303D04561EF
:1007600004E0042302E0056100E00023FF2A01D831
:10077000064601E000F104064FEA840501D9A5F11F
:100780002005D6F8008007FA05FC28EA0C0803FAD1
:1007900005F548EA0508C6F800804D68ED0062D509
:1007A000374DAE6946F00106AE61AD6924F003062F
:1007B00005F001050095334D06EB050CDCF80850FB
:1007C000A607360F07FA06F825EA0805DFF8B8800D
:1007D000404503D14FF0000817E044E0DFF8AC805B
:1007E000404502D14FF001080FE0DFF8A4804045FA
:1007F00002D14FF0020808E0DFF89880404502D1AE
:100800004FF0030801E04FF0040808FA06F848EA40
:100810000508CCF808804D68D9F80060ED034D4616
:1008200001D5164300E096432E604D68DAF800606B
:10083000AD03554601D5164300E096432E604D6842
:10084000DBF80060ED025D4601D5164300E09643FB
:100850002E604D68DEF80060AD02754601D5164386
:1008600000E096432E60641C0D682A46E5407FF444
:1008700031AFBDE8F88F0000000401400000111006
:10088000001002400000014000080140000C01403F
:1008900000100140001401400148806870470000CA
:1008A000040000200248816802781144816070478A
:1008B00004000020074810B5016841F010010160F4
:1008C000032000F075F80F2000F006F800F024F87F
:1008D000002010BD0020024070B50D4D04464FF4BD
:1008E0007A712878B1FBF0F00A490968B1FBF0F0A1
:1008F00000F0ECFA48B9102C07D200222146501E15
:1009000000F036F800206C6070BD012070BD000062
:1009100004000020100000200C4808B5816941F057
:1009200001018161816901F001010091C16941F01A
:100930008051C161C06900F0805000900448416856
:1009400021F0E06141F00071416008BD00100240FB
:1009500000000140002809DB00F01F020121914046
:100960004009800000F1E020C0F80011704700004D
:10097000F0B40E4B1B680C46C3F30223C3F107050A
:10098000042D00D90425191D072901D2002300E0F8
:10099000DB1E012606FA05F1491E214099409E40C2
:1009A000761E16403143F0BC00F0FEBE0CED00E0B8
:1009B000064900F0070208684FF6FF03184040EAB6
:1009C0000220034A10430860704700000CED00E06D
:1009D0000000FA052DE9F0470F46050061D0434EAF
:1009E000306800F00700B84209D2306820F00700F4
:1009F00038433060306800F00700B84251D12868B1
:100A00003B4C810712D5400703D5606840F4E06095
:100A100060602878000703D5606840F4605060602B
:100A20006068A96820F0F000084360602878C0077B
:100A300028D06868012810D02168022810D08907C2
:100A400000292EDA616821F0030101436160FFF79C
:100A500023FF804641F288390DE021688903EFE7E2
:100A60008901EDE7FFF718FFA0EB0801494502D91E
:100A70000320BDE8F0876068696800F00C00B0EB07
:100A8000810FEFD1306800F00700B8420BD9306811
:100A900020F0070038433060306800F00700B842AB
:100AA00001D00120E5E72878400705D56068E968AE
:100AB00020F4E060084360602878000706D560688D
:100AC000296920F4605040EAC100606000F038F805
:100AD0006168084AC1F30311515CC84006490860C7
:100AE00006480068FFF7F8FE0020C2E70020024039
:100AF00000100240B0200008100000200800002074
:100B00000448054900684968044AC1F30221515C60
:100B1000C84070471000002000100240C0200008AC
:100B20000448054900684968044AC1F3C221515C80
:100B3000C84070471000002000100240C02000088C
:100B400012A185B00FC98DE80F0014A0144A0068E7
:100B500004905168134801F00C03042B10D0082BAB
:100B60000ED1C1F38343C9031DF803000AD55168B0
:100B700004AAC1F34041515C0A4A5043B0FBF1F072
:100B800005B0704708494843FAE70000020304052E
:100B9000060708090A0B0C0D0E0F101001020000C9
:100BA0000010024000127A0000093D002DE9F84FC4
:100BB000040070D02078C04DC00749D06868C0F3E9
:100BC0008100012807D06868C0F38100022809D19C
:100BD0006868C00306D52868800339D56068002896
:100BE000E7D035E06068B0F5803F0BD010B1B0F5CC
:100BF000A02F11D0286820F480302860286820F4C5
:100C0000802002E0286840F480302860606890B15D
:100C1000FFF742FE06460AE0286840F4802028607C
:100C2000F0E700BFFFF738FE801B642873D8286800
:100C30008003F7D50CE0FFF72FFE064605E000BF66
:100C4000FFF72AFE801B6428F0D828688003F7D4B9
:100C500020789A4E80074FF001094FF0000839D5EF
:100C6000686810F00C0F07D06868C0F38100022894
:100C700009D16868C00306D42868800714D52069A4
:100C8000012808D110E02069B0B1C6F80090FFF744
:100C900003FE074605E00AE1FFF7FEFDC01B022840
:100CA000C4D828688007F7D52868616920F0F80063
:100CB00040EAC10028600DE0C6F80080FFF7ECFDB7
:100CC000074604E0FFF7E8FDC01B022823D8286888
:100CD0008007F7D4207800072CD57948A169D9B1CD
:100CE000C0F80090FFF7D8FD074604E0FFF7D4FDF9
:100CF000C01B02280FD8686A8007F7D571484FF4E7
:100D0000FA510068B0FBF1F0009000BF0098411E5E
:100D10000091FAD20EE080E0C0F80080FFF7BCFD41
:100D2000074604E0FFF7B8FDC01B022875D8686AC3
:100D30008007F7D42078400760D5E8690027C00015
:100D400008D4E86940F08050E861E869012700F0C4
:100D5000805000905C480168C90513D4016883463F
:100D600041F480710160FFF797FD824606E000BF05
:100D7000FFF792FDA0EB0A0064284ED8DBF80000D4
:100D8000C005F5D5E06801280AD008B1052813D0C0
:100D9000286A20F001002862286A20F0040002E09E
:100DA000286A40F001002862E06841F2883B98B16F
:100DB000FFF772FD82460BE0286A40F004002862CB
:100DC000EEE700BFFFF768FDA0EB0A0159455AD8CE
:100DD000286A8007F6D50CE0FFF75EFD824605E045
:100DE000FFF75AFDA0EB0A0159454CD8286A800745
:100DF000F6D41FB1E86920F08050E861E06988B35B
:100E00006968C1F38101022944D00228C6F86080D4
:100E100004D0FFF741FD044638E034E0FFF73CFD25
:100E2000074604E0FFF738FDC01B02282BD82868CE
:100E30008001F7D4206AB0F5803F05D16868A168C9
:100E400020F4003008436860D4E908010843696869
:100E500021F4741108436860C6F86090FFF71CFD28
:100E6000044606E025E000BFFFF716FD001B022840
:100E700009D828688001F7D51BE000BFFFF70CFDFB
:100E8000001B022802D90320BDE8F88F28688001E2
:100E9000F4D40EE00128F7D06868226A00F48031AB
:100EA000914204D1616A00F47010884201D001209F
:100EB000EAE70020E8E7000000100240000042429C
:100EC00080044242100000200070004010B5401E17
:100ED000B0F1807F01D3012010BD4FF0E0246061AC
:100EE0000F21601700F060FC0020A0610720206146
:100EF000002010BD7047704770B590F83C20012A63
:100F000026D0012480F83C40022280F83D2003686E
:100F10005A689D6822F070060A6832435A600D4B89
:100F200002689A4208D0B2F1804F05D00A4B9A422B
:100F300002D00A4B9A4204D1496825F08003194334
:100F4000916080F83D40002180F83C10084670BD5B
:100F5000022070BD002C0140000400400008004049
:100F600010B5040003D094F83D0010B107E0012053
:100F700010BD002084F83C00204600F01FF802203D
:100F800084F83D00211D206800F002FB012084F858
:100F9000460084F83E0084F83F0084F8400084F85E
:100FA000410084F8420084F8430084F8440084F847
:100FB000450084F83D00002010BD000008B5006821
:100FC000B0F1804F12D10A48C16941F00101C161FD
:100FD000C069002200F00100009001211C20FFF7F1
:100FE000C7FCBDE808401C20FFF7B4BC08BD0000EA
:100FF0000010024090F83D10012901D001207047F7
:10100000022180F83D100168CA6842F00102CA60FE
:1010100000680B49884208D0B0F1804F05D00949DB
:10102000884202D00849884204D1816801F0070152
:10103000062903D0016841F00101016000207047DA
:10104000002C0140000400400008004070B5044638
:1010500090F83C00012817D0012584F83C5002206C
:1010600084F83D002068826822F0770222F47F42F3
:1010700082600868502830D00DDC20284DD005DC77
:1010800098B310283BD148E0022070BD302844D0EE
:10109000402834D139E0602828D0702806D0B0F537
:1010A000805F2CD0B0F5005F29D10AE0CB68D1E990
:1010B0000121206800F0A2FA2068816841F07701E0
:1010C00009E0CB68D1E90121206800F097FA206897
:1010D000816841F48041816011E0CA6849682068F4
:1010E00000F09EFA5021206807E016E0CA684968BF
:1010F000206800F0A6FA6021206800F089FA84F8E0
:101100003D50002084F83C0070BDCA6849682068E2
:1011100000F086FA40212068EFE722680146104679
:10112000EBE7704770B50446006801694FF00005B1
:10113000C943890715D4C168C943890711D4E91E79
:10114000016101202077206880698007204602D055
:10115000FFF7E7FF04E000F098F8204600F096F86B
:10116000257720680169C943490717D4C168C94375
:10117000490713D46FF00401016102202077206831
:10118000806910F4407F204602D0FFF7CAFF04E0D8
:1011900000F07BF8204600F079F825772068016997
:1011A000C943090716D4C168C943090712D46FF0AF
:1011B00008010161042020772068C069800720466B
:1011C00002D0FFF7AEFF04E000F05FF8204600F029
:1011D0005DF8257720680169C943C90617D4C1683D
:1011E000C943C90613D46FF01001016108202077AC
:1011F0002068C06910F4407F204602D0FFF791FFBD
:1012000004E000F042F8204600F040F8257720681E
:101210000169C943C90708D1C168C943C90704D1D5
:10122000891E0161204600F033F820680169C94336
:10123000090609D4C168C943090605D46FF08001C5
:1012400001612046FFF756FE20680169C94349063F
:1012500009D4C168C943490605D46FF04001016152
:10126000204600F02FF820680169C94389060BD495
:10127000C168C943890607D46FF020010161204687
:10128000BDE87040FFF737BE70BD70477047000083
:1012900010B50068B0F1804F0AD106480068FEF72B
:1012A00065FF0246BDE810400B4603A000F06CBA93
:1012B00010BD000000000020746573743A20252ED4
:1012C00032660000704770B5040004D094F83D0009
:1012D000002510B106E0012070BD84F83C50204686
:1012E00000F022F8242084F83D002068C16821F431
:1012F0000051C160204600F0B7F92068016921F46F
:10130000904101612068416921F02A014161206812
:10131000C16841F40051C1602564202084F83D007B
:1013200084F83E00002070BD30B585B000240094E4
:1013300001940294039400681449884223D114480C
:10134000C16941F40031C161C16901F40031049106
:10135000816941F00401816180690E4D00F0040053
:10136000049004200090022001900320039069461D
:101370002846FFF7A1F90820CDE900046946284670
:101380000294FFF799F905B030BD00000044004019
:1013900000100240000801402DE9F843044690F88F
:1013A0003D001F4616460D4620284CD1C5B1BEB1A2
:1013B00094F83C00012846D0012084F83C004FF00E
:1013C0000008C4F84080212084F83D00FFF764FA4B
:1013D000A6848146E684A068B0F5805F03D004E06F
:1013E0000120BDE8F883206928B12E465FF0000592
:1013F00084F83C800EE00026FAE78021204600F0C9
:101400008FF9A0B9AEB116F8010B21684860E08CE5
:10141000401EE084E08C4B464FF00002009700280D
:10142000EBD14FF04001204600F07AF930B10320B3
:10143000D7E735F8020BC0F30800E6E7202084F870
:101440003D000020CDE70220CBE7FEE7094808B5C4
:10145000816941F020018161816901F020010091E1
:10146000816941F004018161806900F0040000900D
:1014700008BD00000010024010B586B000241748D7
:10148000009401940294039404944FF080410594D5
:10149000016040F2F311C0E9011441F61F41C0E9B7
:1014A00003148461FFF75CFD08B1FFF703F94FF403
:1014B0008050009069460948FFF7C8FD08B1FFF762
:1014C000F9F8049404A905480594FFF715FD0028D0
:1014D00001D0FFF7EFF806B010BD000018000020A3
:1014E0000C4810B50A4901604FF4E1314160002118
:1014F00081600C22C160C0E904128161C161FFF703
:10150000E2FE002803D0BDE81040FFF7D3B810BDBD
:101510000044004060000020FEE7FEE7704770478F
:10152000FFF7C0B930B58FB028216846FEF713FE2B
:1015300014210AA8FEF70FFE01210804CDE90010CE
:101540000024029402250491CDE907504FF4E010E5
:1015500009906846FFF72AFB08B172B6FEE70F2034
:10156000CDE90A054FF48060CDE90C4002210AA8BC
:101570000E94FFF72FFA002801D072B6FEE70FB0E5
:1015800030BD70470148FFF7CDBD000018000020B6
:10159000F0B50268164B174C174D4FF08047984234
:1015A00005D0B84203D0A04201D0A84203D122F016
:1015B00070064A683243984205D0B84203D0A04230
:1015C00001D0A84203D122F44074CA6822434C6976
:1015D00022F08002224302608A68C2620A68826244
:1015E000984201D10969016301214161F0BD000008
:1015F000002C0140000400400008004010B5846841
:1016000042EA032224F47F440A432243826010BD4D
:10161000826822F070020A4342F00701816070473D
:1016200010B5036A046A24F001040462846924F09A
:10163000F00444EA021423F00A020A4384610262BD
:1016400010BD10B5036A23F0100303628369046AB6
:1016500023F4704343EA023224F0A00343EA011169
:101660008261016210BD000070B504460068016926
:10167000E26821F44051114301612169A0680843E7
:10168000616908432168CA6841F20C639A430243C6
:10169000CA6020684169A26921F440711143416127
:1016A0001E492068884202D1FFF73AFA01E0FFF7AD
:1016B00027FA00EBC00101EB001260686421800092
:1016C000B2FBF0F3B3FBF1F36FF018067343B2FB18
:1016D000F0F5B2FBF0F605EB8305322303EB0515BD
:1016E000B5FBF1F5B6FBF1F605F0F00505EB0615D7
:1016F000B2FBF0F6B2FBF0F0B0FBF1F06FF01802C5
:10170000504306EB800003EB0010B0FBF1F02168C2
:1017100000F00F002844886070BD000000380140D0
:101720002DE9F041984617460E460446069D1DE0F9
:10173000681C1BD02DB1FFF7AFF8A0EB0800A84242
:1017400014D92068C16821F4D071C1602068416952
:1017500021F001014161202084F83D0084F83E0021
:10176000002084F83C000320BDE8F0812068006878
:1017700036EA000004D00020B842D9D00020F3E7B8
:101780000120F9E7FEE700000FB4054B10B503A9EF
:10179000044A029800F0EAF810BC5DF814FB00005F
:1017A00075200008140000200907090E002804DB3A
:1017B00000F1E02080F80014704700F00F0000F105
:1017C000E02080F8141D704702E008C8121F08C10D
:1017D000002AFAD170477047002001E001C1121FB2
:1017E000002AFBD1704700002DE9FF5F82B0002185
:1017F000DDE90430020DDDF840B0034318D044F6B3
:101800001050A2F2FF3242431514119801281FD044
:10181000A5EB0B00401C5FEA000A4FF000064E4F9C
:10182000DFF83891B046504615D5CAF1000413E0F0
:10183000119801244AA3012801D16FEA0B010298F3
:10184000119AC0E90031C0E9024206B0BDE8F09F3C
:10185000CBF10000DFE704460021404A491842EB83
:101860000450CDE9001012E0E00707D032463B46B5
:1018700040464946FEF77BFD8046894632463B4658
:1018800010461946FEF773FD06460F466410002CFD
:10189000EAD1DDE90401DDE90023BAF1000F06DA3F
:1018A000FEF765FD42464B46FEF761FD05E0FEF79B
:1018B000D0FD42464B46FEF7CCFD04460E460022C4
:1018C000284BFEF74DFE03D84FF0FF30014607E0EE
:1018D0000022254B20463146FEF7A2FCFEF728FEEB
:1018E000102409E0002C0ADB0A220023FEF767FC23
:1018F000039B30321A55641E50EA0102F2D1641C77
:10190000039AC4F111031444119A012A03D001224D
:1019100008430DD10AE0084304D000204FF0110B1A
:10192000119072E7A3EB0B056D1E0DE05B4504DD26
:101930004FF0000205F1010504E003DA4FF0000268
:10194000A5F10105002AECD002981199C0E90231F5
:10195000C0E9004579E70000000014400000F03FB6
:10196000300000000000F0430000E03F2DE9FF4F91
:1019700095B09A46884606460025EEE1252877D19F
:1019800000242746F94A0121039400E0044316F895
:10199000013F203B01FA03F01042F7D130782A28AA
:1019A00011D06FF02F033078A0F13002092A16D839
:1019B000039A44F0020402EB820203EB4202104459
:1019C000761C0390EFE758F8042B0392002A03DA01
:1019D000504244F40054039044F00204761C3078E2
:1019E0002E2816D116F8010F44F004042A280DD031
:1019F0006FF02F023078A0F13003092B09D807EBE4
:101A0000870302EB4303C718761CF3E758F8047BFF
:101A1000761C30786C280FD006DC4C2817D068284C
:101A20000DD06A2814D104E0742810D07A280FD180
:101A30000DE044F400140AE044F4801401E044F49E
:101A400040147278824202D104F58014761C761C10
:101A5000307866280BD013DC582877D009DC0028B2
:101A600075D04528F6D04628F4D047281AD193E1FE
:101A700018E0632835D0642879D0652812D18BE12D
:101A8000702873D008DC6728F1D069286FD06E28E1
:101A90000DD06F2806D1ACE073282CD0752874D0F7
:101AA000782853D05246179990476D1C54E1C4F3DF
:101AB0000250022809D003280DD0D8F800100428BD
:101AC0000DD00D6008F1040846E1D8F80010EA17BF
:101AD000C1E90052F6E7D8F800100D80F2E70D706A
:101AE000F0E718F8041B8DF8001000208DF80100B5
:101AF000EB46012003E058F804BB4FF0FF306107CC
:101B00004FF0000102D40DE009F101018946B9420C
:101B10000FDA8145F8DB1BF809100029F4D108E041
:101B200009F1010189468142FADB1BF809100029FD
:101B3000F6D103985346A0EB090721463846179A79
:101B400000F080FA284400EB090507E044E008E1D2
:101B50000DE01BF8010B524617999047B9F10109A6
:101B6000F7D2534621463846179AF2E039E00A2167
:101B7000C4F302524FF0000B0091022A06D058F82D
:101B8000040BC117032A09D00AE023E008F107007B
:101B900020F00702F2E80201904605E000B2C1170A
:101BA000042A01D140B2C117002906DA0A460021F1
:101BB000404261EB02012D2202E0220504D52B22D6
:101BC0008DF80420012203E0E20701D02022F7E78C
:101BD000914657E00A2100E010214FF0000B0091E0
:101BE0000BE010214FF0000B44F004040827009193
:101BF00003E008204FF0000B0090C4F30252022AC9
:101C000005D058F8040B0021032A08D008E008F199
:101C1000070020F00702F2E80201904603E080B2DC
:101C2000042A00D1C0B24FF0000922072AD5327829
:101C3000702A07D0DDF800C08CF0100C5CEA0B0CA9
:101C400005D00EE040228DF80420012208E050EA81
:101C5000010306D030238DF804308DF805200222D0
:101C60009146009B83F0080353EA0B030AD150EA24
:101C7000010201D1620705D530228DF804204FF012
:101C800001097F1E3278582A04D039A20C920CAA7E
:101C900002920BE03BA2F9E75B46009AFEF78FFA4F
:101CA0000C9B9B5C029A521E0292137050EA010236
:101CB000F2D1029804A9081A00F1200B600702D59E
:101CC00024F4803400E001275F4502DDA7EB0B0020
:101CD00000E0002000EB0B01009003984944401AFB
:101CE0000390E00306D453462146179A039800F068
:101CF000A9F90544002706E001A85246C05D1799DE
:101D000090476D1C7F1C4F45F6DBE0030CD5534616
:101D10002146179A039800F095F9054404E0302015
:101D20005246179990476D1C0099481E0090002953
:101D3000F5DC08E00298029952460078491C0291AD
:101D4000179990476D1CBBF10001ABF1010BF1DC61
:101D50005BE100F065F90544761C307800287FF4DB
:101D60000DAE19B02846BDE8F08F0000092801002B
:101D70003031323334353637383961626364656601
:101D800000000000303132333435363738394142C3
:101D90004344454600000000600700D4062708F1D0
:101DA000070020F00700F0E80223804603F0004C13
:101DB0005FEA0C0001D097A009E0200501D596A0AC
:101DC00005E0E00701D095A001E0AFF24C001390D0
:101DD000307823F0004365280CD006DC452809D074
:101DE00046281DD047287FD13BE0662818D06728B9
:101DF0007AD136E00021112F01DB112000E0781CA0
:101E0000CDE9000104A90CA8FFF7EEFCDDE90D0106
:101E10000C9A4FF0000B07F10109109200914EE06F
:101E20004FF000400097CDE9011004A90CA8FFF77E
:101E3000DBFCDDE90D020C9B0F994FF0000B914686
:101E40001093009211B9791C00EB0109B7EB09005E
:101E500003D4C0F1FF3B07F10109A9EB0700019092
:101E600042E0012F00DA01270021112F01DD1120AE
:101E700000E03846CDE9000104A90CA8FFF7B4FC46
:101E8000DDE90D010C9A00914FF0000BB94610925C
:101E900021070FD4009A4A4503DA914601E0A9F1DF
:101EA0000109B9F1010F05DD109AA9F10101515C99
:101EB0003029F4D0B84202DA10F1040F03DA01211C
:101EC000CDE9011010E0002803DC8344A9EB0001F8
:101ED00002E0411C494500DD8946A0EB0B00401C97
:101EE00001904FF000400290200705D4019848452A
:101EF00002DB4FF0FF30019000208DF84B0002987C
:101F00000DF14B07B0F1004F25D002200C902B2093
:101F10000D90029800280CDA404202902D200D907E
:101F200007E00A210298FEF734F93031029007F8F1
:101F3000011D0C99481E0C900029F2DC0298002823
:101F4000EFD1791E0D980870307800F0200040F035
:101F5000450007F8020D11A8C01BC01D0290139880
:101F6000007800B1012000EB0901019801EBE0715C
:101F7000029801440398401A401E0390E00306D4DF
:101F800053462146179A039800F05CF805441398CD
:101F9000007818B15246179990476D1CE00323D57D
:101FA00053462146179A039800F04CF805441BE06D
:101FB000BBF1000F07DB0098584504DD1098179916
:101FC00010F80B0001E01799302052469047019815
:101FD0000BF1010B401E05F10105019004D12E20EB
:101FE0005246179990476D1CB9F10001A9F10109FA
:101FF000DEDC05E017F8010B5246179990476D1C7F
:102000000299481E02900029F4DC53462146179A93
:1020100003989EE62D0000002B0000002000000029
:102020002DE9F041044600251E461746880404D4D5
:1020300005E039462020B0476D1C641EF9D52846BE
:10204000BDE8F0812DE9F041044600251E4690468A
:10205000C80301D5302700E02027880404D505E017
:1020600041463846B0476D1C641EF9D52846BDE888
:10207000F081000038B504468DF8000002230122EB
:1020800069460248FFF788F9204638BD6000002005
:10209000FEF710FCFFF746FAFFF7D8F9FFF7ECF967
:1020A000FFF71EFA0148FEF7A5FFFEE71800002023
:1020B00000000000000000000102030406070809F8
:1020C0000000000001020304E820000800000020D6
:1020D00018000000C81700080021000818000020A0
:1020E00090040000D8170008CDCC2C41010000005E
:1020F00010000000000000000024F40000000000B8
:04000005080000ED02
:00000001FF
